{
  "address": "0x0d647c0d502Ce3fb4a2f7e79e27D1d8Ef67A37cA",
  "abi": [
    {
      "inputs": [],
      "stateMutability": "nonpayable",
      "type": "constructor"
    },
    {
      "anonymous": false,
      "inputs": [
        {
          "indexed": false,
          "internalType": "address",
          "name": "previousAdmin",
          "type": "address"
        },
        {
          "indexed": false,
          "internalType": "address",
          "name": "newAdmin",
          "type": "address"
        }
      ],
      "name": "AdminChanged",
      "type": "event"
    },
    {
      "anonymous": false,
      "inputs": [
        {
          "indexed": true,
          "internalType": "address",
          "name": "beacon",
          "type": "address"
        }
      ],
      "name": "BeaconUpgraded",
      "type": "event"
    },
    {
      "anonymous": false,
      "inputs": [
        {
          "indexed": false,
          "internalType": "uint8",
          "name": "version",
          "type": "uint8"
        }
      ],
      "name": "Initialized",
      "type": "event"
    },
    {
      "anonymous": false,
      "inputs": [
        {
          "indexed": true,
          "internalType": "bytes32",
          "name": "role",
          "type": "bytes32"
        },
        {
          "indexed": true,
          "internalType": "bytes32",
          "name": "previousAdminRole",
          "type": "bytes32"
        },
        {
          "indexed": true,
          "internalType": "bytes32",
          "name": "newAdminRole",
          "type": "bytes32"
        }
      ],
      "name": "RoleAdminChanged",
      "type": "event"
    },
    {
      "anonymous": false,
      "inputs": [
        {
          "indexed": true,
          "internalType": "bytes32",
          "name": "role",
          "type": "bytes32"
        },
        {
          "indexed": true,
          "internalType": "address",
          "name": "account",
          "type": "address"
        },
        {
          "indexed": true,
          "internalType": "address",
          "name": "sender",
          "type": "address"
        }
      ],
      "name": "RoleGranted",
      "type": "event"
    },
    {
      "anonymous": false,
      "inputs": [
        {
          "indexed": true,
          "internalType": "bytes32",
          "name": "role",
          "type": "bytes32"
        },
        {
          "indexed": true,
          "internalType": "address",
          "name": "account",
          "type": "address"
        },
        {
          "indexed": true,
          "internalType": "address",
          "name": "sender",
          "type": "address"
        }
      ],
      "name": "RoleRevoked",
      "type": "event"
    },
    {
      "anonymous": false,
      "inputs": [
        {
          "indexed": true,
          "internalType": "address",
          "name": "oldAddress",
          "type": "address"
        },
        {
          "indexed": true,
          "internalType": "address",
          "name": "newAddress",
          "type": "address"
        }
      ],
      "name": "SL4YAddressChanged",
      "type": "event"
    },
    {
      "anonymous": false,
      "inputs": [
        {
          "indexed": true,
          "internalType": "address",
          "name": "minter",
          "type": "address"
        },
        {
          "indexed": true,
          "internalType": "uint256",
          "name": "VTHOAmount",
          "type": "uint256"
        },
        {
          "indexed": true,
          "internalType": "uint256",
          "name": "SL4YAmount",
          "type": "uint256"
        }
      ],
      "name": "SL4YMinted",
      "type": "event"
    },
    {
      "anonymous": false,
      "inputs": [
        {
          "indexed": true,
          "internalType": "uint256",
          "name": "VTHOAmount",
          "type": "uint256"
        },
        {
          "indexed": true,
          "internalType": "uint256",
          "name": "SL4YAmount",
          "type": "uint256"
        }
      ],
      "name": "SwapRateChanged",
      "type": "event"
    },
    {
      "anonymous": false,
      "inputs": [
        {
          "indexed": true,
          "internalType": "address",
          "name": "tokenAddress",
          "type": "address"
        },
        {
          "indexed": true,
          "internalType": "address",
          "name": "claimer",
          "type": "address"
        },
        {
          "indexed": false,
          "internalType": "uint256",
          "name": "amount",
          "type": "uint256"
        }
      ],
      "name": "TokenClaimed",
      "type": "event"
    },
    {
      "anonymous": false,
      "inputs": [
        {
          "indexed": true,
          "internalType": "address",
          "name": "implementation",
          "type": "address"
        }
      ],
      "name": "Upgraded",
      "type": "event"
    },
    {
      "anonymous": false,
      "inputs": [
        {
          "indexed": true,
          "internalType": "address",
          "name": "oldAddress",
          "type": "address"
        },
        {
          "indexed": true,
          "internalType": "address",
          "name": "newAddress",
          "type": "address"
        }
      ],
      "name": "VaultAddressChanged",
      "type": "event"
    },
    {
      "anonymous": false,
      "inputs": [
        {
          "indexed": true,
          "internalType": "address",
          "name": "claimer",
          "type": "address"
        },
        {
          "indexed": false,
          "internalType": "uint256",
          "name": "amount",
          "type": "uint256"
        }
      ],
      "name": "VetClaimed",
      "type": "event"
    },
    {
      "inputs": [],
      "name": "ADMIN_ROLE",
      "outputs": [
        {
          "internalType": "bytes32",
          "name": "",
          "type": "bytes32"
        }
      ],
      "stateMutability": "view",
      "type": "function"
    },
    {
      "inputs": [],
      "name": "DEFAULT_ADMIN_ROLE",
      "outputs": [
        {
          "internalType": "bytes32",
          "name": "",
          "type": "bytes32"
        }
      ],
      "stateMutability": "view",
      "type": "function"
    },
    {
      "inputs": [],
      "name": "SL4Y",
      "outputs": [
        {
          "internalType": "contract ERC20PresetMinterPauserUpgradeable",
          "name": "",
          "type": "address"
        }
      ],
      "stateMutability": "view",
      "type": "function"
    },
    {
      "inputs": [],
      "name": "UPGRADER_ROLE",
      "outputs": [
        {
          "internalType": "bytes32",
          "name": "",
          "type": "bytes32"
        }
      ],
      "stateMutability": "view",
      "type": "function"
    },
    {
      "inputs": [],
      "name": "VTHO",
      "outputs": [
        {
          "internalType": "contract IERC20Upgradeable",
          "name": "",
          "type": "address"
        }
      ],
      "stateMutability": "view",
      "type": "function"
    },
    {
      "inputs": [
        {
          "internalType": "address",
          "name": "_tokenAddress",
          "type": "address"
        },
        {
          "internalType": "uint256",
          "name": "_amount",
          "type": "uint256"
        }
      ],
      "name": "claimToken",
      "outputs": [],
      "stateMutability": "nonpayable",
      "type": "function"
    },
    {
      "inputs": [
        {
          "internalType": "uint256",
          "name": "_amount",
          "type": "uint256"
        }
      ],
      "name": "claimVet",
      "outputs": [],
      "stateMutability": "nonpayable",
      "type": "function"
    },
    {
      "inputs": [
        {
          "internalType": "bytes32",
          "name": "role",
          "type": "bytes32"
        }
      ],
      "name": "getRoleAdmin",
      "outputs": [
        {
          "internalType": "bytes32",
          "name": "",
          "type": "bytes32"
        }
      ],
      "stateMutability": "view",
      "type": "function"
    },
    {
      "inputs": [
        {
          "internalType": "bytes32",
          "name": "role",
          "type": "bytes32"
        },
        {
          "internalType": "address",
          "name": "account",
          "type": "address"
        }
      ],
      "name": "grantRole",
      "outputs": [],
      "stateMutability": "nonpayable",
      "type": "function"
    },
    {
      "inputs": [
        {
          "internalType": "bytes32",
          "name": "role",
          "type": "bytes32"
        },
        {
          "internalType": "address",
          "name": "account",
          "type": "address"
        }
      ],
      "name": "hasRole",
      "outputs": [
        {
          "internalType": "bool",
          "name": "",
          "type": "bool"
        }
      ],
      "stateMutability": "view",
      "type": "function"
    },
    {
      "inputs": [
        {
          "internalType": "address",
          "name": "_VTHO",
          "type": "address"
        },
        {
          "internalType": "address",
          "name": "_SL4Y",
          "type": "address"
        },
        {
          "internalType": "address payable",
          "name": "_vault",
          "type": "address"
        }
      ],
      "name": "initialize",
      "outputs": [],
      "stateMutability": "nonpayable",
      "type": "function"
    },
    {
      "inputs": [],
      "name": "proxiableUUID",
      "outputs": [
        {
          "internalType": "bytes32",
          "name": "",
          "type": "bytes32"
        }
      ],
      "stateMutability": "view",
      "type": "function"
    },
    {
      "inputs": [
        {
          "internalType": "bytes32",
          "name": "role",
          "type": "bytes32"
        },
        {
          "internalType": "address",
          "name": "account",
          "type": "address"
        }
      ],
      "name": "renounceRole",
      "outputs": [],
      "stateMutability": "nonpayable",
      "type": "function"
    },
    {
      "inputs": [
        {
          "internalType": "bytes32",
          "name": "role",
          "type": "bytes32"
        },
        {
          "internalType": "address",
          "name": "account",
          "type": "address"
        }
      ],
      "name": "revokeRole",
      "outputs": [],
      "stateMutability": "nonpayable",
      "type": "function"
    },
    {
      "inputs": [
        {
          "internalType": "address",
          "name": "_SL4Y",
          "type": "address"
        }
      ],
      "name": "setSL4YAddress",
      "outputs": [],
      "stateMutability": "nonpayable",
      "type": "function"
    },
    {
      "inputs": [
        {
          "internalType": "uint256",
          "name": "_VTHOAmount",
          "type": "uint256"
        },
        {
          "internalType": "uint256",
          "name": "_SL4YAmount",
          "type": "uint256"
        }
      ],
      "name": "setSwapRate",
      "outputs": [],
      "stateMutability": "nonpayable",
      "type": "function"
    },
    {
      "inputs": [
        {
          "internalType": "address payable",
          "name": "_vault",
          "type": "address"
        }
      ],
      "name": "setVaultAddress",
      "outputs": [],
      "stateMutability": "nonpayable",
      "type": "function"
    },
    {
      "inputs": [
        {
          "internalType": "bytes4",
          "name": "interfaceId",
          "type": "bytes4"
        }
      ],
      "name": "supportsInterface",
      "outputs": [
        {
          "internalType": "bool",
          "name": "",
          "type": "bool"
        }
      ],
      "stateMutability": "view",
      "type": "function"
    },
    {
      "inputs": [
        {
          "internalType": "uint256",
          "name": "",
          "type": "uint256"
        }
      ],
      "name": "swapRates",
      "outputs": [
        {
          "internalType": "uint256",
          "name": "",
          "type": "uint256"
        }
      ],
      "stateMutability": "view",
      "type": "function"
    },
    {
      "inputs": [
        {
          "internalType": "uint256",
          "name": "_VTHOAmount",
          "type": "uint256"
        }
      ],
      "name": "swapVTHOforSL4Y",
      "outputs": [],
      "stateMutability": "nonpayable",
      "type": "function"
    },
    {
      "inputs": [
        {
          "internalType": "address",
          "name": "newImplementation",
          "type": "address"
        }
      ],
      "name": "upgradeTo",
      "outputs": [],
      "stateMutability": "nonpayable",
      "type": "function"
    },
    {
      "inputs": [
        {
          "internalType": "address",
          "name": "newImplementation",
          "type": "address"
        },
        {
          "internalType": "bytes",
          "name": "data",
          "type": "bytes"
        }
      ],
      "name": "upgradeToAndCall",
      "outputs": [],
      "stateMutability": "payable",
      "type": "function"
    },
    {
      "inputs": [],
      "name": "vault",
      "outputs": [
        {
          "internalType": "address payable",
          "name": "",
          "type": "address"
        }
      ],
      "stateMutability": "view",
      "type": "function"
    },
    {
      "stateMutability": "payable",
      "type": "receive"
    }
  ],
  "transactionHash": "0xd1101863b0c7eb814816a5994fb47079632af49f725ac9f578692563f8581b30",
  "args": [],
  "numDeployments": 1,
  "solcInputHash": "c7a98b8a036893d0741055e517637c19",
  "bytecode": "0x60a06040523073ffffffffffffffffffffffffffffffffffffffff1660809073ffffffffffffffffffffffffffffffffffffffff168152503480156200004457600080fd5b50620000556200005b60201b60201c565b62000205565b600060019054906101000a900460ff1615620000ae576040517f08c379a0000000000000000000000000000000000000000000000000000000008152600401620000a590620001a8565b60405180910390fd5b60ff801660008054906101000a900460ff1660ff16146200011f5760ff6000806101000a81548160ff021916908360ff1602179055507f7f26b83ff96e1f2b6a682f133852f6798a09c465da95921460cefb384740249860ff604051620001169190620001e8565b60405180910390a15b565b600082825260208201905092915050565b7f496e697469616c697a61626c653a20636f6e747261637420697320696e69746960008201527f616c697a696e6700000000000000000000000000000000000000000000000000602082015250565b60006200019060278362000121565b91506200019d8262000132565b604082019050919050565b60006020820190508181036000830152620001c38162000181565b9050919050565b600060ff82169050919050565b620001e281620001ca565b82525050565b6000602082019050620001ff6000830184620001d7565b92915050565b6080516134766200023d6000396000818161070d0152818161079b015281816108ad0152818161093b01526109eb01526134766000f3fe6080604052600436106101445760003560e01c806384c9fcad116100b6578063bc9502df1161006f578063bc9502df14610456578063c0c53b8b1461047f578063d1d55d14146104a8578063d547741f146104d1578063f72c0d8b146104fa578063fbfa77cf146105255761014b565b806384c9fcad1461034857806385535cc51461037357806391d148541461039c578063a151b7c2146103d9578063a217fddf14610402578063af6caba81461042d5761014b565b806336568abe1161010857806336568abe146102475780633659cfe61461027057806344813baf146102995780634f1ef286146102d657806352d1902d146102f257806375b238fc1461031d5761014b565b806301ffc9a7146101505780631698755f1461018d578063248a9ca3146101b657806325a6fbed146101f35780632f2ff15d1461021e5761014b565b3661014b57005b600080fd5b34801561015c57600080fd5b5061017760048036038101906101729190612210565b610550565b6040516101849190612258565b60405180910390f35b34801561019957600080fd5b506101b460048036038101906101af9190612307565b610562565b005b3480156101c257600080fd5b506101dd60048036038101906101d8919061237d565b610621565b6040516101ea91906123b9565b60405180910390f35b3480156101ff57600080fd5b50610208610641565b6040516102159190612433565b60405180910390f35b34801561022a57600080fd5b506102456004803603810190610240919061244e565b610667565b005b34801561025357600080fd5b5061026e6004803603810190610269919061244e565b610688565b005b34801561027c57600080fd5b506102976004803603810190610292919061248e565b61070b565b005b3480156102a557600080fd5b506102c060048036038101906102bb91906124bb565b610893565b6040516102cd91906124f7565b60405180910390f35b6102f060048036038101906102eb9190612658565b6108ab565b005b3480156102fe57600080fd5b506103076109e7565b60405161031491906123b9565b60405180910390f35b34801561032957600080fd5b50610332610aa0565b60405161033f91906123b9565b60405180910390f35b34801561035457600080fd5b5061035d610ac4565b60405161036a91906126d5565b60405180910390f35b34801561037f57600080fd5b5061039a6004803603810190610395919061272e565b610aea565b005b3480156103a857600080fd5b506103c360048036038101906103be919061244e565b610bd5565b6040516103d09190612258565b60405180910390f35b3480156103e557600080fd5b5061040060048036038101906103fb91906124bb565b610c40565b005b34801561040e57600080fd5b50610417610d03565b60405161042491906123b9565b60405180910390f35b34801561043957600080fd5b50610454600480360381019061044f919061275b565b610d0a565b005b34801561046257600080fd5b5061047d600480360381019061047891906124bb565b610d7f565b005b34801561048b57600080fd5b506104a660048036038101906104a1919061279b565b610f36565b005b3480156104b457600080fd5b506104cf60048036038101906104ca919061248e565b61124d565b005b3480156104dd57600080fd5b506104f860048036038101906104f3919061244e565b611338565b005b34801561050657600080fd5b5061050f611359565b60405161051c91906123b9565b60405180910390f35b34801561053157600080fd5b5061053a61137d565b60405161054791906127fd565b60405180910390f35b600061055b826113a3565b9050919050565b7fa49807205ce4d355092ef5a8a18f56e8913cf4a201fbe287825b095693c2177561058c8161141d565b6105b733838573ffffffffffffffffffffffffffffffffffffffff166114319092919063ffffffff16565b3373ffffffffffffffffffffffffffffffffffffffff168373ffffffffffffffffffffffffffffffffffffffff167f4831bdd9dcf3048a28319ce81d3cab7a15366bcf449bc7803a539107440809cc8460405161061491906124f7565b60405180910390a3505050565b600060656000838152602001908152602001600020600101549050919050565b60fc60009054906101000a900473ffffffffffffffffffffffffffffffffffffffff1681565b61067082610621565b6106798161141d565b61068383836114b7565b505050565b6106906114c5565b73ffffffffffffffffffffffffffffffffffffffff168173ffffffffffffffffffffffffffffffffffffffff16146106fd576040517f08c379a00000000000000000000000000000000000000000000000000000000081526004016106f49061289b565b60405180910390fd5b61070782826114cd565b5050565b7f000000000000000000000000000000000000000000000000000000000000000073ffffffffffffffffffffffffffffffffffffffff163073ffffffffffffffffffffffffffffffffffffffff1603610799576040517f08c379a00000000000000000000000000000000000000000000000000000000081526004016107909061292d565b60405180910390fd5b7f000000000000000000000000000000000000000000000000000000000000000073ffffffffffffffffffffffffffffffffffffffff166107d86114db565b73ffffffffffffffffffffffffffffffffffffffff161461082e576040517f08c379a0000000000000000000000000000000000000000000000000000000008152600401610825906129bf565b60405180910390fd5b61083781611532565b61089081600067ffffffffffffffff8111156108565761085561252d565b5b6040519080825280601f01601f1916602001820160405280156108885781602001600182028036833780820191505090505b506000611560565b50565b60fe6020528060005260406000206000915090505481565b7f000000000000000000000000000000000000000000000000000000000000000073ffffffffffffffffffffffffffffffffffffffff163073ffffffffffffffffffffffffffffffffffffffff1603610939576040517f08c379a00000000000000000000000000000000000000000000000000000000081526004016109309061292d565b60405180910390fd5b7f000000000000000000000000000000000000000000000000000000000000000073ffffffffffffffffffffffffffffffffffffffff166109786114db565b73ffffffffffffffffffffffffffffffffffffffff16146109ce576040517f08c379a00000000000000000000000000000000000000000000000000000000081526004016109c5906129bf565b60405180910390fd5b6109d782611532565b6109e382826001611560565b5050565b60007f000000000000000000000000000000000000000000000000000000000000000073ffffffffffffffffffffffffffffffffffffffff163073ffffffffffffffffffffffffffffffffffffffff1614610a77576040517f08c379a0000000000000000000000000000000000000000000000000000000008152600401610a6e90612a51565b60405180910390fd5b7f360894a13ba1a3210667c828492db98dca3e2076cc3735a920a3ca505d382bbc60001b905090565b7fa49807205ce4d355092ef5a8a18f56e8913cf4a201fbe287825b095693c2177581565b60fb60009054906101000a900473ffffffffffffffffffffffffffffffffffffffff1681565b7fa49807205ce4d355092ef5a8a18f56e8913cf4a201fbe287825b095693c21775610b148161141d565b8173ffffffffffffffffffffffffffffffffffffffff1660fd60009054906101000a900473ffffffffffffffffffffffffffffffffffffffff1673ffffffffffffffffffffffffffffffffffffffff167fa4f45a63389e7031375b7e4422cccea56ab403ecedbd3ce1f0587acaa1999ae360405160405180910390a38160fd60006101000a81548173ffffffffffffffffffffffffffffffffffffffff021916908373ffffffffffffffffffffffffffffffffffffffff1602179055505050565b60006065600084815260200190815260200160002060000160008373ffffffffffffffffffffffffffffffffffffffff1673ffffffffffffffffffffffffffffffffffffffff16815260200190815260200160002060009054906101000a900460ff16905092915050565b7fa49807205ce4d355092ef5a8a18f56e8913cf4a201fbe287825b095693c21775610c6a8161141d565b3373ffffffffffffffffffffffffffffffffffffffff166108fc839081150290604051600060405180830381858888f19350505050158015610cb0573d6000803e3d6000fd5b503373ffffffffffffffffffffffffffffffffffffffff167f619a13697ca96b15bc278834a05830ee3ea6f70f102d2e2e1083d1ce168f06c883604051610cf791906124f7565b60405180910390a25050565b6000801b81565b7fa49807205ce4d355092ef5a8a18f56e8913cf4a201fbe287825b095693c21775610d348161141d565b8160fe60008581526020019081526020016000208190555081837f6e10705e8f713c8fba70c18d7fd53fe8fec14af5dc22fe8a745a57eae894b31b60405160405180910390a3505050565b600060fe60008381526020019081526020016000205411610dd5576040517f08c379a0000000000000000000000000000000000000000000000000000000008152600401610dcc90612abd565b60405180910390fd5b600060fe6000838152602001908152602001600020549050610e5e3360fd60009054906101000a900473ffffffffffffffffffffffffffffffffffffffff168460fb60009054906101000a900473ffffffffffffffffffffffffffffffffffffffff1673ffffffffffffffffffffffffffffffffffffffff166116ce909392919063ffffffff16565b60fc60009054906101000a900473ffffffffffffffffffffffffffffffffffffffff1673ffffffffffffffffffffffffffffffffffffffff166340c10f1933836040518363ffffffff1660e01b8152600401610ebb929190612aec565b600060405180830381600087803b158015610ed557600080fd5b505af1158015610ee9573d6000803e3d6000fd5b5050505080823373ffffffffffffffffffffffffffffffffffffffff167f88021ce48cfd4c150aadf498f576400a04bd784e65cd5462b00d12fe5152437f60405160405180910390a45050565b60008060019054906101000a900460ff16159050808015610f675750600160008054906101000a900460ff1660ff16105b80610f945750610f7630611757565b158015610f935750600160008054906101000a900460ff1660ff16145b5b610fd3576040517f08c379a0000000000000000000000000000000000000000000000000000000008152600401610fca90612b87565b60405180910390fd5b60016000806101000a81548160ff021916908360ff1602179055508015611010576001600060016101000a81548160ff0219169083151502179055505b61101861177a565b6110206117cb565b61102d6000801b336114b7565b6110577f189ab7a9244df0848122154315af71fe140f3db0fe014031783b0946b8c9d2e3336114b7565b6110817fa49807205ce4d355092ef5a8a18f56e8913cf4a201fbe287825b095693c21775336114b7565b8360fb60006101000a81548173ffffffffffffffffffffffffffffffffffffffff021916908373ffffffffffffffffffffffffffffffffffffffff1602179055508260fc60006101000a81548173ffffffffffffffffffffffffffffffffffffffff021916908373ffffffffffffffffffffffffffffffffffffffff1602179055508160fd60006101000a81548173ffffffffffffffffffffffffffffffffffffffff021916908373ffffffffffffffffffffffffffffffffffffffff160217905550674563918244f4000060fe600069010f0cf064dd59200000815260200190815260200160002081905550678ac7230489e8000060fe600069021e19e0c9bab24000008152602001908152602001600020819055506801158e460913d0000060fe600069032d26d12e980b60000081526020019081526020016000208190555068022b1c8c1227a0000060fe600069054b40b1f852bda0000081526020019081526020016000208190555080156112475760008060016101000a81548160ff0219169083151502179055507f7f26b83ff96e1f2b6a682f133852f6798a09c465da95921460cefb3847402498600160405161123e9190612bef565b60405180910390a15b50505050565b7fa49807205ce4d355092ef5a8a18f56e8913cf4a201fbe287825b095693c217756112778161141d565b8173ffffffffffffffffffffffffffffffffffffffff1660fc60009054906101000a900473ffffffffffffffffffffffffffffffffffffffff1673ffffffffffffffffffffffffffffffffffffffff167fa4fc899ac68c404270ca30f9142e10f0d28b015f5b1bf3c3a934ef6fd9ca87a360405160405180910390a38160fc60006101000a81548173ffffffffffffffffffffffffffffffffffffffff021916908373ffffffffffffffffffffffffffffffffffffffff1602179055505050565b61134182610621565b61134a8161141d565b61135483836114cd565b505050565b7f189ab7a9244df0848122154315af71fe140f3db0fe014031783b0946b8c9d2e381565b60fd60009054906101000a900473ffffffffffffffffffffffffffffffffffffffff1681565b60007f7965db0b000000000000000000000000000000000000000000000000000000007bffffffffffffffffffffffffffffffffffffffffffffffffffffffff1916827bffffffffffffffffffffffffffffffffffffffffffffffffffffffff1916148061141657506114158261181c565b5b9050919050565b61142e816114296114c5565b611886565b50565b6114b28363a9059cbb60e01b8484604051602401611450929190612aec565b604051602081830303815290604052907bffffffffffffffffffffffffffffffffffffffffffffffffffffffff19166020820180517bffffffffffffffffffffffffffffffffffffffffffffffffffffffff838183161783525050505061190b565b505050565b6114c182826119d3565b5050565b600033905090565b6114d78282611ab4565b5050565b60006115097f360894a13ba1a3210667c828492db98dca3e2076cc3735a920a3ca505d382bbc60001b611b96565b60000160009054906101000a900473ffffffffffffffffffffffffffffffffffffffff16905090565b7f189ab7a9244df0848122154315af71fe140f3db0fe014031783b0946b8c9d2e361155c8161141d565b5050565b61158c7f4910fdfa16fed3260ed0e7147f7cc6da11a60208b5b9406d12a635614ffd914360001b611ba0565b60000160009054906101000a900460ff16156115b0576115ab83611baa565b6116c9565b8273ffffffffffffffffffffffffffffffffffffffff166352d1902d6040518163ffffffff1660e01b8152600401602060405180830381865afa92505050801561161857506040513d601f19601f820116820180604052508101906116159190612c1f565b60015b611657576040517f08c379a000000000000000000000000000000000000000000000000000000000815260040161164e90612cbe565b60405180910390fd5b7f360894a13ba1a3210667c828492db98dca3e2076cc3735a920a3ca505d382bbc60001b81146116bc576040517f08c379a00000000000000000000000000000000000000000000000000000000081526004016116b390612d50565b60405180910390fd5b506116c8838383611c63565b5b505050565b611751846323b872dd60e01b8585856040516024016116ef93929190612d70565b604051602081830303815290604052907bffffffffffffffffffffffffffffffffffffffffffffffffffffffff19166020820180517bffffffffffffffffffffffffffffffffffffffffffffffffffffffff838183161783525050505061190b565b50505050565b6000808273ffffffffffffffffffffffffffffffffffffffff163b119050919050565b600060019054906101000a900460ff166117c9576040517f08c379a00000000000000000000000000000000000000000000000000000000081526004016117c090612e19565b60405180910390fd5b565b600060019054906101000a900460ff1661181a576040517f08c379a000000000000000000000000000000000000000000000000000000000815260040161181190612e19565b60405180910390fd5b565b60007f01ffc9a7000000000000000000000000000000000000000000000000000000007bffffffffffffffffffffffffffffffffffffffffffffffffffffffff1916827bffffffffffffffffffffffffffffffffffffffffffffffffffffffff1916149050919050565b6118908282610bd5565b6119075761189d81611c8f565b6118ab8360001c6020611cbc565b6040516020016118bc929190612f42565b6040516020818303038152906040526040517f08c379a00000000000000000000000000000000000000000000000000000000081526004016118fe9190612fb5565b60405180910390fd5b5050565b600061196d826040518060400160405280602081526020017f5361666545524332303a206c6f772d6c6576656c2063616c6c206661696c65648152508573ffffffffffffffffffffffffffffffffffffffff16611ef89092919063ffffffff16565b905060008151148061198f57508080602001905181019061198e9190613003565b5b6119ce576040517f08c379a00000000000000000000000000000000000000000000000000000000081526004016119c5906130a2565b60405180910390fd5b505050565b6119dd8282610bd5565b611ab05760016065600084815260200190815260200160002060000160008373ffffffffffffffffffffffffffffffffffffffff1673ffffffffffffffffffffffffffffffffffffffff16815260200190815260200160002060006101000a81548160ff021916908315150217905550611a556114c5565b73ffffffffffffffffffffffffffffffffffffffff168173ffffffffffffffffffffffffffffffffffffffff16837f2f8788117e7eff1d82e926ec794901d17c78024a50270940304540a733656f0d60405160405180910390a45b5050565b611abe8282610bd5565b15611b925760006065600084815260200190815260200160002060000160008373ffffffffffffffffffffffffffffffffffffffff1673ffffffffffffffffffffffffffffffffffffffff16815260200190815260200160002060006101000a81548160ff021916908315150217905550611b376114c5565b73ffffffffffffffffffffffffffffffffffffffff168173ffffffffffffffffffffffffffffffffffffffff16837ff6391f5c32d9c69d2a47ea670b442974b53935d1edc7fd64eb21e047a839171b60405160405180910390a45b5050565b6000819050919050565b6000819050919050565b611bb381611757565b611bf2576040517f08c379a0000000000000000000000000000000000000000000000000000000008152600401611be990613134565b60405180910390fd5b80611c1f7f360894a13ba1a3210667c828492db98dca3e2076cc3735a920a3ca505d382bbc60001b611b96565b60000160006101000a81548173ffffffffffffffffffffffffffffffffffffffff021916908373ffffffffffffffffffffffffffffffffffffffff16021790555050565b611c6c83611f10565b600082511180611c795750805b15611c8a57611c888383611f5f565b505b505050565b6060611cb58273ffffffffffffffffffffffffffffffffffffffff16601460ff16611cbc565b9050919050565b606060006002836002611ccf9190613183565b611cd991906131c5565b67ffffffffffffffff811115611cf257611cf161252d565b5b6040519080825280601f01601f191660200182016040528015611d245781602001600182028036833780820191505090505b5090507f300000000000000000000000000000000000000000000000000000000000000081600081518110611d5c57611d5b6131f9565b5b60200101907effffffffffffffffffffffffffffffffffffffffffffffffffffffffffffff1916908160001a9053507f780000000000000000000000000000000000000000000000000000000000000081600181518110611dc057611dbf6131f9565b5b60200101907effffffffffffffffffffffffffffffffffffffffffffffffffffffffffffff1916908160001a90535060006001846002611e009190613183565b611e0a91906131c5565b90505b6001811115611eaa577f3031323334353637383961626364656600000000000000000000000000000000600f861660108110611e4c57611e4b6131f9565b5b1a60f81b828281518110611e6357611e626131f9565b5b60200101907effffffffffffffffffffffffffffffffffffffffffffffffffffffffffffff1916908160001a905350600485901c945080611ea390613228565b9050611e0d565b5060008414611eee576040517f08c379a0000000000000000000000000000000000000000000000000000000008152600401611ee59061329d565b60405180910390fd5b8091505092915050565b6060611f078484600085611f8c565b90509392505050565b611f1981611baa565b8073ffffffffffffffffffffffffffffffffffffffff167fbc7cd75a20ee27fd9adebab32041f755214dbc6bffa90cc0225b39da2e5c2d3b60405160405180910390a250565b6060611f84838360405180606001604052806027815260200161341a60279139612059565b905092915050565b606082471015611fd1576040517f08c379a0000000000000000000000000000000000000000000000000000000008152600401611fc89061332f565b60405180910390fd5b6000808673ffffffffffffffffffffffffffffffffffffffff168587604051611ffa9190613396565b60006040518083038185875af1925050503d8060008114612037576040519150601f19603f3d011682016040523d82523d6000602084013e61203c565b606091505b509150915061204d878383876120df565b92505050949350505050565b60606000808573ffffffffffffffffffffffffffffffffffffffff16856040516120839190613396565b600060405180830381855af49150503d80600081146120be576040519150601f19603f3d011682016040523d82523d6000602084013e6120c3565b606091505b50915091506120d4868383876120df565b925050509392505050565b60608315612141576000835103612139576120f985611757565b612138576040517f08c379a000000000000000000000000000000000000000000000000000000000815260040161212f906133f9565b60405180910390fd5b5b82905061214c565b61214b8383612154565b5b949350505050565b6000825111156121675781518083602001fd5b806040517f08c379a000000000000000000000000000000000000000000000000000000000815260040161219b9190612fb5565b60405180910390fd5b6000604051905090565b600080fd5b600080fd5b60007fffffffff0000000000000000000000000000000000000000000000000000000082169050919050565b6121ed816121b8565b81146121f857600080fd5b50565b60008135905061220a816121e4565b92915050565b600060208284031215612226576122256121ae565b5b6000612234848285016121fb565b91505092915050565b60008115159050919050565b6122528161223d565b82525050565b600060208201905061226d6000830184612249565b92915050565b600073ffffffffffffffffffffffffffffffffffffffff82169050919050565b600061229e82612273565b9050919050565b6122ae81612293565b81146122b957600080fd5b50565b6000813590506122cb816122a5565b92915050565b6000819050919050565b6122e4816122d1565b81146122ef57600080fd5b50565b600081359050612301816122db565b92915050565b6000806040838503121561231e5761231d6121ae565b5b600061232c858286016122bc565b925050602061233d858286016122f2565b9150509250929050565b6000819050919050565b61235a81612347565b811461236557600080fd5b50565b60008135905061237781612351565b92915050565b600060208284031215612393576123926121ae565b5b60006123a184828501612368565b91505092915050565b6123b381612347565b82525050565b60006020820190506123ce60008301846123aa565b92915050565b6000819050919050565b60006123f96123f46123ef84612273565b6123d4565b612273565b9050919050565b600061240b826123de565b9050919050565b600061241d82612400565b9050919050565b61242d81612412565b82525050565b60006020820190506124486000830184612424565b92915050565b60008060408385031215612465576124646121ae565b5b600061247385828601612368565b9250506020612484858286016122bc565b9150509250929050565b6000602082840312156124a4576124a36121ae565b5b60006124b2848285016122bc565b91505092915050565b6000602082840312156124d1576124d06121ae565b5b60006124df848285016122f2565b91505092915050565b6124f1816122d1565b82525050565b600060208201905061250c60008301846124e8565b92915050565b600080fd5b600080fd5b6000601f19601f8301169050919050565b7f4e487b7100000000000000000000000000000000000000000000000000000000600052604160045260246000fd5b6125658261251c565b810181811067ffffffffffffffff821117156125845761258361252d565b5b80604052505050565b60006125976121a4565b90506125a3828261255c565b919050565b600067ffffffffffffffff8211156125c3576125c261252d565b5b6125cc8261251c565b9050602081019050919050565b82818337600083830152505050565b60006125fb6125f6846125a8565b61258d565b90508281526020810184848401111561261757612616612517565b5b6126228482856125d9565b509392505050565b600082601f83011261263f5761263e612512565b5b813561264f8482602086016125e8565b91505092915050565b6000806040838503121561266f5761266e6121ae565b5b600061267d858286016122bc565b925050602083013567ffffffffffffffff81111561269e5761269d6121b3565b5b6126aa8582860161262a565b9150509250929050565b60006126bf82612400565b9050919050565b6126cf816126b4565b82525050565b60006020820190506126ea60008301846126c6565b92915050565b60006126fb82612273565b9050919050565b61270b816126f0565b811461271657600080fd5b50565b60008135905061272881612702565b92915050565b600060208284031215612744576127436121ae565b5b600061275284828501612719565b91505092915050565b60008060408385031215612772576127716121ae565b5b6000612780858286016122f2565b9250506020612791858286016122f2565b9150509250929050565b6000806000606084860312156127b4576127b36121ae565b5b60006127c2868287016122bc565b93505060206127d3868287016122bc565b92505060406127e486828701612719565b9150509250925092565b6127f7816126f0565b82525050565b600060208201905061281260008301846127ee565b92915050565b600082825260208201905092915050565b7f416363657373436f6e74726f6c3a2063616e206f6e6c792072656e6f756e636560008201527f20726f6c657320666f722073656c660000000000000000000000000000000000602082015250565b6000612885602f83612818565b915061289082612829565b604082019050919050565b600060208201905081810360008301526128b481612878565b9050919050565b7f46756e6374696f6e206d7573742062652063616c6c6564207468726f7567682060008201527f64656c656761746563616c6c0000000000000000000000000000000000000000602082015250565b6000612917602c83612818565b9150612922826128bb565b604082019050919050565b600060208201905081810360008301526129468161290a565b9050919050565b7f46756e6374696f6e206d7573742062652063616c6c6564207468726f7567682060008201527f6163746976652070726f78790000000000000000000000000000000000000000602082015250565b60006129a9602c83612818565b91506129b48261294d565b604082019050919050565b600060208201905081810360008301526129d88161299c565b9050919050565b7f555550535570677261646561626c653a206d757374206e6f742062652063616c60008201527f6c6564207468726f7567682064656c656761746563616c6c0000000000000000602082015250565b6000612a3b603883612818565b9150612a46826129df565b604082019050919050565b60006020820190508181036000830152612a6a81612a2e565b9050919050565b7f537761702072617465206e6f7420646566696e65640000000000000000000000600082015250565b6000612aa7601583612818565b9150612ab282612a71565b602082019050919050565b60006020820190508181036000830152612ad681612a9a565b9050919050565b612ae681612293565b82525050565b6000604082019050612b016000830185612add565b612b0e60208301846124e8565b9392505050565b7f496e697469616c697a61626c653a20636f6e747261637420697320616c72656160008201527f647920696e697469616c697a6564000000000000000000000000000000000000602082015250565b6000612b71602e83612818565b9150612b7c82612b15565b604082019050919050565b60006020820190508181036000830152612ba081612b64565b9050919050565b6000819050919050565b600060ff82169050919050565b6000612bd9612bd4612bcf84612ba7565b6123d4565b612bb1565b9050919050565b612be981612bbe565b82525050565b6000602082019050612c046000830184612be0565b92915050565b600081519050612c1981612351565b92915050565b600060208284031215612c3557612c346121ae565b5b6000612c4384828501612c0a565b91505092915050565b7f45524331393637557067726164653a206e657720696d706c656d656e7461746960008201527f6f6e206973206e6f742055555053000000000000000000000000000000000000602082015250565b6000612ca8602e83612818565b9150612cb382612c4c565b604082019050919050565b60006020820190508181036000830152612cd781612c9b565b9050919050565b7f45524331393637557067726164653a20756e737570706f727465642070726f7860008201527f6961626c65555549440000000000000000000000000000000000000000000000602082015250565b6000612d3a602983612818565b9150612d4582612cde565b604082019050919050565b60006020820190508181036000830152612d6981612d2d565b9050919050565b6000606082019050612d856000830186612add565b612d926020830185612add565b612d9f60408301846124e8565b949350505050565b7f496e697469616c697a61626c653a20636f6e7472616374206973206e6f74206960008201527f6e697469616c697a696e67000000000000000000000000000000000000000000602082015250565b6000612e03602b83612818565b9150612e0e82612da7565b604082019050919050565b60006020820190508181036000830152612e3281612df6565b9050919050565b600081905092915050565b7f416363657373436f6e74726f6c3a206163636f756e7420000000000000000000600082015250565b6000612e7a601783612e39565b9150612e8582612e44565b601782019050919050565b600081519050919050565b60005b83811015612eb9578082015181840152602081019050612e9e565b60008484015250505050565b6000612ed082612e90565b612eda8185612e39565b9350612eea818560208601612e9b565b80840191505092915050565b7f206973206d697373696e6720726f6c6520000000000000000000000000000000600082015250565b6000612f2c601183612e39565b9150612f3782612ef6565b601182019050919050565b6000612f4d82612e6d565b9150612f598285612ec5565b9150612f6482612f1f565b9150612f708284612ec5565b91508190509392505050565b6000612f8782612e90565b612f918185612818565b9350612fa1818560208601612e9b565b612faa8161251c565b840191505092915050565b60006020820190508181036000830152612fcf8184612f7c565b905092915050565b612fe08161223d565b8114612feb57600080fd5b50565b600081519050612ffd81612fd7565b92915050565b600060208284031215613019576130186121ae565b5b600061302784828501612fee565b91505092915050565b7f5361666545524332303a204552433230206f7065726174696f6e20646964206e60008201527f6f74207375636365656400000000000000000000000000000000000000000000602082015250565b600061308c602a83612818565b915061309782613030565b604082019050919050565b600060208201905081810360008301526130bb8161307f565b9050919050565b7f455243313936373a206e657720696d706c656d656e746174696f6e206973206e60008201527f6f74206120636f6e747261637400000000000000000000000000000000000000602082015250565b600061311e602d83612818565b9150613129826130c2565b604082019050919050565b6000602082019050818103600083015261314d81613111565b9050919050565b7f4e487b7100000000000000000000000000000000000000000000000000000000600052601160045260246000fd5b600061318e826122d1565b9150613199836122d1565b92508282026131a7816122d1565b915082820484148315176131be576131bd613154565b5b5092915050565b60006131d0826122d1565b91506131db836122d1565b92508282019050808211156131f3576131f2613154565b5b92915050565b7f4e487b7100000000000000000000000000000000000000000000000000000000600052603260045260246000fd5b6000613233826122d1565b91506000820361324657613245613154565b5b600182039050919050565b7f537472696e67733a20686578206c656e67746820696e73756666696369656e74600082015250565b6000613287602083612818565b915061329282613251565b602082019050919050565b600060208201905081810360008301526132b68161327a565b9050919050565b7f416464726573733a20696e73756666696369656e742062616c616e636520666f60008201527f722063616c6c0000000000000000000000000000000000000000000000000000602082015250565b6000613319602683612818565b9150613324826132bd565b604082019050919050565b600060208201905081810360008301526133488161330c565b9050919050565b600081519050919050565b600081905092915050565b60006133708261334f565b61337a818561335a565b935061338a818560208601612e9b565b80840191505092915050565b60006133a28284613365565b915081905092915050565b7f416464726573733a2063616c6c20746f206e6f6e2d636f6e7472616374000000600082015250565b60006133e3601d83612818565b91506133ee826133ad565b602082019050919050565b60006020820190508181036000830152613412816133d6565b905091905056fe416464726573733a206c6f772d6c6576656c2064656c65676174652063616c6c206661696c6564a2646970667358221220cb4404aa615c92bad44ebd679c33ea53a40d89427d7c58f690ff8e2455e7002064736f6c63430008130033",
  "libraries": {},
  "devdoc": {
    "events": {
      "AdminChanged(address,address)": {
        "details": "Emitted when the admin account has changed."
      },
      "BeaconUpgraded(address)": {
        "details": "Emitted when the beacon is changed."
      },
      "Initialized(uint8)": {
        "details": "Triggered when the contract has been initialized or reinitialized."
      },
      "RoleAdminChanged(bytes32,bytes32,bytes32)": {
        "details": "Emitted when `newAdminRole` is set as ``role``'s admin role, replacing `previousAdminRole` `DEFAULT_ADMIN_ROLE` is the starting admin for all roles, despite {RoleAdminChanged} not being emitted signaling this. _Available since v3.1._"
      },
      "RoleGranted(bytes32,address,address)": {
        "details": "Emitted when `account` is granted `role`. `sender` is the account that originated the contract call, an admin role bearer except when using {AccessControl-_setupRole}."
      },
      "RoleRevoked(bytes32,address,address)": {
        "details": "Emitted when `account` is revoked `role`. `sender` is the account that originated the contract call:   - if using `revokeRole`, it is the admin role bearer   - if using `renounceRole`, it is the role bearer (i.e. `account`)"
      },
      "Upgraded(address)": {
        "details": "Emitted when the implementation is upgraded."
      }
    },
    "kind": "dev",
    "methods": {
      "constructor": {
        "custom:oz-upgrades-unsafe-allow": "constructor"
      },
      "getRoleAdmin(bytes32)": {
        "details": "Returns the admin role that controls `role`. See {grantRole} and {revokeRole}. To change a role's admin, use {_setRoleAdmin}."
      },
      "grantRole(bytes32,address)": {
        "details": "Grants `role` to `account`. If `account` had not been already granted `role`, emits a {RoleGranted} event. Requirements: - the caller must have ``role``'s admin role. May emit a {RoleGranted} event."
      },
      "hasRole(bytes32,address)": {
        "details": "Returns `true` if `account` has been granted `role`."
      },
      "proxiableUUID()": {
        "details": "Implementation of the ERC1822 {proxiableUUID} function. This returns the storage slot used by the implementation. It is used to validate the implementation's compatibility when performing an upgrade. IMPORTANT: A proxy pointing at a proxiable contract should not be considered proxiable itself, because this risks bricking a proxy that upgrades to it, by delegating to itself until out of gas. Thus it is critical that this function revert if invoked through a proxy. This is guaranteed by the `notDelegated` modifier."
      },
      "renounceRole(bytes32,address)": {
        "details": "Revokes `role` from the calling account. Roles are often managed via {grantRole} and {revokeRole}: this function's purpose is to provide a mechanism for accounts to lose their privileges if they are compromised (such as when a trusted device is misplaced). If the calling account had been revoked `role`, emits a {RoleRevoked} event. Requirements: - the caller must be `account`. May emit a {RoleRevoked} event."
      },
      "revokeRole(bytes32,address)": {
        "details": "Revokes `role` from `account`. If `account` had been granted `role`, emits a {RoleRevoked} event. Requirements: - the caller must have ``role``'s admin role. May emit a {RoleRevoked} event."
      },
      "supportsInterface(bytes4)": {
        "details": "See {IERC165-supportsInterface}."
      },
      "upgradeTo(address)": {
        "custom:oz-upgrades-unsafe-allow-reachable": "delegatecall",
        "details": "Upgrade the implementation of the proxy to `newImplementation`. Calls {_authorizeUpgrade}. Emits an {Upgraded} event."
      },
      "upgradeToAndCall(address,bytes)": {
        "custom:oz-upgrades-unsafe-allow-reachable": "delegatecall",
        "details": "Upgrade the implementation of the proxy to `newImplementation`, and subsequently execute the function call encoded in `data`. Calls {_authorizeUpgrade}. Emits an {Upgraded} event."
      }
    },
    "version": 1
  },
  "userdoc": {
    "kind": "user",
    "methods": {},
    "version": 1
  },
  "storageLayout": {
    "storage": [
      {
        "astId": 953,
        "contract": "contracts/SL4YMinter.sol:SL4YMinter",
        "label": "_initialized",
        "offset": 0,
        "slot": "0",
        "type": "t_uint8"
      },
      {
        "astId": 956,
        "contract": "contracts/SL4YMinter.sol:SL4YMinter",
        "label": "_initializing",
        "offset": 1,
        "slot": "0",
        "type": "t_bool"
      },
      {
        "astId": 3195,
        "contract": "contracts/SL4YMinter.sol:SL4YMinter",
        "label": "__gap",
        "offset": 0,
        "slot": "1",
        "type": "t_array(t_uint256)50_storage"
      },
      {
        "astId": 3579,
        "contract": "contracts/SL4YMinter.sol:SL4YMinter",
        "label": "__gap",
        "offset": 0,
        "slot": "51",
        "type": "t_array(t_uint256)50_storage"
      },
      {
        "astId": 174,
        "contract": "contracts/SL4YMinter.sol:SL4YMinter",
        "label": "_roles",
        "offset": 0,
        "slot": "101",
        "type": "t_mapping(t_bytes32,t_struct(RoleData)169_storage)"
      },
      {
        "astId": 481,
        "contract": "contracts/SL4YMinter.sol:SL4YMinter",
        "label": "__gap",
        "offset": 0,
        "slot": "102",
        "type": "t_array(t_uint256)49_storage"
      },
      {
        "astId": 935,
        "contract": "contracts/SL4YMinter.sol:SL4YMinter",
        "label": "__gap",
        "offset": 0,
        "slot": "151",
        "type": "t_array(t_uint256)50_storage"
      },
      {
        "astId": 1251,
        "contract": "contracts/SL4YMinter.sol:SL4YMinter",
        "label": "__gap",
        "offset": 0,
        "slot": "201",
        "type": "t_array(t_uint256)50_storage"
      },
      {
        "astId": 5212,
        "contract": "contracts/SL4YMinter.sol:SL4YMinter",
        "label": "VTHO",
        "offset": 0,
        "slot": "251",
        "type": "t_contract(IERC20Upgradeable)2071"
      },
      {
        "astId": 5215,
        "contract": "contracts/SL4YMinter.sol:SL4YMinter",
        "label": "SL4Y",
        "offset": 0,
        "slot": "252",
        "type": "t_contract(ERC20PresetMinterPauserUpgradeable)2439"
      },
      {
        "astId": 5217,
        "contract": "contracts/SL4YMinter.sol:SL4YMinter",
        "label": "vault",
        "offset": 0,
        "slot": "253",
        "type": "t_address_payable"
      },
      {
        "astId": 5221,
        "contract": "contracts/SL4YMinter.sol:SL4YMinter",
        "label": "swapRates",
        "offset": 0,
        "slot": "254",
        "type": "t_mapping(t_uint256,t_uint256)"
      }
    ],
    "types": {
      "t_address": {
        "encoding": "inplace",
        "label": "address",
        "numberOfBytes": "20"
      },
      "t_address_payable": {
        "encoding": "inplace",
        "label": "address payable",
        "numberOfBytes": "20"
      },
      "t_array(t_uint256)49_storage": {
        "base": "t_uint256",
        "encoding": "inplace",
        "label": "uint256[49]",
        "numberOfBytes": "1568"
      },
      "t_array(t_uint256)50_storage": {
        "base": "t_uint256",
        "encoding": "inplace",
        "label": "uint256[50]",
        "numberOfBytes": "1600"
      },
      "t_bool": {
        "encoding": "inplace",
        "label": "bool",
        "numberOfBytes": "1"
      },
      "t_bytes32": {
        "encoding": "inplace",
        "label": "bytes32",
        "numberOfBytes": "32"
      },
      "t_contract(ERC20PresetMinterPauserUpgradeable)2439": {
        "encoding": "inplace",
        "label": "contract ERC20PresetMinterPauserUpgradeable",
        "numberOfBytes": "20"
      },
      "t_contract(IERC20Upgradeable)2071": {
        "encoding": "inplace",
        "label": "contract IERC20Upgradeable",
        "numberOfBytes": "20"
      },
      "t_mapping(t_address,t_bool)": {
        "encoding": "mapping",
        "key": "t_address",
        "label": "mapping(address => bool)",
        "numberOfBytes": "32",
        "value": "t_bool"
      },
      "t_mapping(t_bytes32,t_struct(RoleData)169_storage)": {
        "encoding": "mapping",
        "key": "t_bytes32",
        "label": "mapping(bytes32 => struct AccessControlUpgradeable.RoleData)",
        "numberOfBytes": "32",
        "value": "t_struct(RoleData)169_storage"
      },
      "t_mapping(t_uint256,t_uint256)": {
        "encoding": "mapping",
        "key": "t_uint256",
        "label": "mapping(uint256 => uint256)",
        "numberOfBytes": "32",
        "value": "t_uint256"
      },
      "t_struct(RoleData)169_storage": {
        "encoding": "inplace",
        "label": "struct AccessControlUpgradeable.RoleData",
        "members": [
          {
            "astId": 166,
            "contract": "contracts/SL4YMinter.sol:SL4YMinter",
            "label": "members",
            "offset": 0,
            "slot": "0",
            "type": "t_mapping(t_address,t_bool)"
          },
          {
            "astId": 168,
            "contract": "contracts/SL4YMinter.sol:SL4YMinter",
            "label": "adminRole",
            "offset": 0,
            "slot": "1",
            "type": "t_bytes32"
          }
        ],
        "numberOfBytes": "64"
      },
      "t_uint256": {
        "encoding": "inplace",
        "label": "uint256",
        "numberOfBytes": "32"
      },
      "t_uint8": {
        "encoding": "inplace",
        "label": "uint8",
        "numberOfBytes": "1"
      }
    }
  }
}