{
  "address": "0x2AF6f36159afA16D176747a47A1d5837Fb9E5a1e",
  "abi": [
    {
      "inputs": [],
      "stateMutability": "nonpayable",
      "type": "constructor"
    },
    {
      "anonymous": false,
      "inputs": [
        {
          "indexed": false,
          "internalType": "address",
          "name": "previousAdmin",
          "type": "address"
        },
        {
          "indexed": false,
          "internalType": "address",
          "name": "newAdmin",
          "type": "address"
        }
      ],
      "name": "AdminChanged",
      "type": "event"
    },
    {
      "anonymous": false,
      "inputs": [
        {
          "indexed": true,
          "internalType": "address",
          "name": "beacon",
          "type": "address"
        }
      ],
      "name": "BeaconUpgraded",
      "type": "event"
    },
    {
      "anonymous": false,
      "inputs": [
        {
          "indexed": false,
          "internalType": "uint8",
          "name": "version",
          "type": "uint8"
        }
      ],
      "name": "Initialized",
      "type": "event"
    },
    {
      "anonymous": false,
      "inputs": [
        {
          "indexed": true,
          "internalType": "bytes32",
          "name": "role",
          "type": "bytes32"
        },
        {
          "indexed": true,
          "internalType": "bytes32",
          "name": "previousAdminRole",
          "type": "bytes32"
        },
        {
          "indexed": true,
          "internalType": "bytes32",
          "name": "newAdminRole",
          "type": "bytes32"
        }
      ],
      "name": "RoleAdminChanged",
      "type": "event"
    },
    {
      "anonymous": false,
      "inputs": [
        {
          "indexed": true,
          "internalType": "bytes32",
          "name": "role",
          "type": "bytes32"
        },
        {
          "indexed": true,
          "internalType": "address",
          "name": "account",
          "type": "address"
        },
        {
          "indexed": true,
          "internalType": "address",
          "name": "sender",
          "type": "address"
        }
      ],
      "name": "RoleGranted",
      "type": "event"
    },
    {
      "anonymous": false,
      "inputs": [
        {
          "indexed": true,
          "internalType": "bytes32",
          "name": "role",
          "type": "bytes32"
        },
        {
          "indexed": true,
          "internalType": "address",
          "name": "account",
          "type": "address"
        },
        {
          "indexed": true,
          "internalType": "address",
          "name": "sender",
          "type": "address"
        }
      ],
      "name": "RoleRevoked",
      "type": "event"
    },
    {
      "anonymous": false,
      "inputs": [
        {
          "indexed": true,
          "internalType": "address",
          "name": "oldAddress",
          "type": "address"
        },
        {
          "indexed": true,
          "internalType": "address",
          "name": "newAddress",
          "type": "address"
        }
      ],
      "name": "SL4YAddressChanged",
      "type": "event"
    },
    {
      "anonymous": false,
      "inputs": [
        {
          "indexed": true,
          "internalType": "address",
          "name": "minter",
          "type": "address"
        },
        {
          "indexed": true,
          "internalType": "uint256",
          "name": "VTHOAmount",
          "type": "uint256"
        },
        {
          "indexed": true,
          "internalType": "uint256",
          "name": "SL4YAmount",
          "type": "uint256"
        }
      ],
      "name": "SL4YMinted",
      "type": "event"
    },
    {
      "anonymous": false,
      "inputs": [
        {
          "indexed": true,
          "internalType": "uint256",
          "name": "VTHOAmount",
          "type": "uint256"
        },
        {
          "indexed": true,
          "internalType": "uint256",
          "name": "SL4YAmount",
          "type": "uint256"
        }
      ],
      "name": "SwapRateChanged",
      "type": "event"
    },
    {
      "anonymous": false,
      "inputs": [
        {
          "indexed": true,
          "internalType": "address",
          "name": "tokenAddress",
          "type": "address"
        },
        {
          "indexed": true,
          "internalType": "address",
          "name": "claimer",
          "type": "address"
        },
        {
          "indexed": false,
          "internalType": "uint256",
          "name": "amount",
          "type": "uint256"
        }
      ],
      "name": "TokenClaimed",
      "type": "event"
    },
    {
      "anonymous": false,
      "inputs": [
        {
          "indexed": true,
          "internalType": "address",
          "name": "implementation",
          "type": "address"
        }
      ],
      "name": "Upgraded",
      "type": "event"
    },
    {
      "anonymous": false,
      "inputs": [
        {
          "indexed": true,
          "internalType": "address",
          "name": "oldAddress",
          "type": "address"
        },
        {
          "indexed": true,
          "internalType": "address",
          "name": "newAddress",
          "type": "address"
        }
      ],
      "name": "VaultAddressChanged",
      "type": "event"
    },
    {
      "anonymous": false,
      "inputs": [
        {
          "indexed": true,
          "internalType": "address",
          "name": "claimer",
          "type": "address"
        },
        {
          "indexed": false,
          "internalType": "uint256",
          "name": "amount",
          "type": "uint256"
        }
      ],
      "name": "VetClaimed",
      "type": "event"
    },
    {
      "inputs": [],
      "name": "ADMIN_ROLE",
      "outputs": [
        {
          "internalType": "bytes32",
          "name": "",
          "type": "bytes32"
        }
      ],
      "stateMutability": "view",
      "type": "function"
    },
    {
      "inputs": [],
      "name": "DEFAULT_ADMIN_ROLE",
      "outputs": [
        {
          "internalType": "bytes32",
          "name": "",
          "type": "bytes32"
        }
      ],
      "stateMutability": "view",
      "type": "function"
    },
    {
      "inputs": [],
      "name": "SL4Y",
      "outputs": [
        {
          "internalType": "contract ERC20PresetMinterPauserUpgradeable",
          "name": "",
          "type": "address"
        }
      ],
      "stateMutability": "view",
      "type": "function"
    },
    {
      "inputs": [],
      "name": "UPGRADER_ROLE",
      "outputs": [
        {
          "internalType": "bytes32",
          "name": "",
          "type": "bytes32"
        }
      ],
      "stateMutability": "view",
      "type": "function"
    },
    {
      "inputs": [],
      "name": "VTHO",
      "outputs": [
        {
          "internalType": "contract IERC20Upgradeable",
          "name": "",
          "type": "address"
        }
      ],
      "stateMutability": "view",
      "type": "function"
    },
    {
      "inputs": [
        {
          "internalType": "address",
          "name": "_tokenAddress",
          "type": "address"
        },
        {
          "internalType": "uint256",
          "name": "_amount",
          "type": "uint256"
        }
      ],
      "name": "claimToken",
      "outputs": [],
      "stateMutability": "nonpayable",
      "type": "function"
    },
    {
      "inputs": [
        {
          "internalType": "uint256",
          "name": "_amount",
          "type": "uint256"
        }
      ],
      "name": "claimVet",
      "outputs": [],
      "stateMutability": "nonpayable",
      "type": "function"
    },
    {
      "inputs": [
        {
          "internalType": "bytes32",
          "name": "role",
          "type": "bytes32"
        }
      ],
      "name": "getRoleAdmin",
      "outputs": [
        {
          "internalType": "bytes32",
          "name": "",
          "type": "bytes32"
        }
      ],
      "stateMutability": "view",
      "type": "function"
    },
    {
      "inputs": [
        {
          "internalType": "bytes32",
          "name": "role",
          "type": "bytes32"
        },
        {
          "internalType": "address",
          "name": "account",
          "type": "address"
        }
      ],
      "name": "grantRole",
      "outputs": [],
      "stateMutability": "nonpayable",
      "type": "function"
    },
    {
      "inputs": [
        {
          "internalType": "bytes32",
          "name": "role",
          "type": "bytes32"
        },
        {
          "internalType": "address",
          "name": "account",
          "type": "address"
        }
      ],
      "name": "hasRole",
      "outputs": [
        {
          "internalType": "bool",
          "name": "",
          "type": "bool"
        }
      ],
      "stateMutability": "view",
      "type": "function"
    },
    {
      "inputs": [
        {
          "internalType": "address",
          "name": "_VTHO",
          "type": "address"
        },
        {
          "internalType": "address",
          "name": "_SL4Y",
          "type": "address"
        },
        {
          "internalType": "address payable",
          "name": "_vault",
          "type": "address"
        }
      ],
      "name": "initialize",
      "outputs": [],
      "stateMutability": "nonpayable",
      "type": "function"
    },
    {
      "inputs": [],
      "name": "proxiableUUID",
      "outputs": [
        {
          "internalType": "bytes32",
          "name": "",
          "type": "bytes32"
        }
      ],
      "stateMutability": "view",
      "type": "function"
    },
    {
      "inputs": [
        {
          "internalType": "bytes32",
          "name": "role",
          "type": "bytes32"
        },
        {
          "internalType": "address",
          "name": "account",
          "type": "address"
        }
      ],
      "name": "renounceRole",
      "outputs": [],
      "stateMutability": "nonpayable",
      "type": "function"
    },
    {
      "inputs": [
        {
          "internalType": "bytes32",
          "name": "role",
          "type": "bytes32"
        },
        {
          "internalType": "address",
          "name": "account",
          "type": "address"
        }
      ],
      "name": "revokeRole",
      "outputs": [],
      "stateMutability": "nonpayable",
      "type": "function"
    },
    {
      "inputs": [
        {
          "internalType": "address",
          "name": "_SL4Y",
          "type": "address"
        }
      ],
      "name": "setSL4YAddress",
      "outputs": [],
      "stateMutability": "nonpayable",
      "type": "function"
    },
    {
      "inputs": [
        {
          "internalType": "uint256",
          "name": "_VTHOAmount",
          "type": "uint256"
        },
        {
          "internalType": "uint256",
          "name": "_SL4YAmount",
          "type": "uint256"
        }
      ],
      "name": "setSwapRate",
      "outputs": [],
      "stateMutability": "nonpayable",
      "type": "function"
    },
    {
      "inputs": [
        {
          "internalType": "address payable",
          "name": "_vault",
          "type": "address"
        }
      ],
      "name": "setVaultAddress",
      "outputs": [],
      "stateMutability": "nonpayable",
      "type": "function"
    },
    {
      "inputs": [
        {
          "internalType": "bytes4",
          "name": "interfaceId",
          "type": "bytes4"
        }
      ],
      "name": "supportsInterface",
      "outputs": [
        {
          "internalType": "bool",
          "name": "",
          "type": "bool"
        }
      ],
      "stateMutability": "view",
      "type": "function"
    },
    {
      "inputs": [
        {
          "internalType": "uint256",
          "name": "",
          "type": "uint256"
        }
      ],
      "name": "swapRates",
      "outputs": [
        {
          "internalType": "uint256",
          "name": "",
          "type": "uint256"
        }
      ],
      "stateMutability": "view",
      "type": "function"
    },
    {
      "inputs": [
        {
          "internalType": "uint256",
          "name": "_VTHOAmount",
          "type": "uint256"
        }
      ],
      "name": "swapVTHOforSL4Y",
      "outputs": [],
      "stateMutability": "nonpayable",
      "type": "function"
    },
    {
      "inputs": [
        {
          "internalType": "address",
          "name": "newImplementation",
          "type": "address"
        }
      ],
      "name": "upgradeTo",
      "outputs": [],
      "stateMutability": "nonpayable",
      "type": "function"
    },
    {
      "inputs": [
        {
          "internalType": "address",
          "name": "newImplementation",
          "type": "address"
        },
        {
          "internalType": "bytes",
          "name": "data",
          "type": "bytes"
        }
      ],
      "name": "upgradeToAndCall",
      "outputs": [],
      "stateMutability": "payable",
      "type": "function"
    },
    {
      "inputs": [],
      "name": "vault",
      "outputs": [
        {
          "internalType": "address payable",
          "name": "",
          "type": "address"
        }
      ],
      "stateMutability": "view",
      "type": "function"
    }
  ],
  "transactionHash": "0x3c725a4e1d4e00a0915a6df10d716089450c64286f24eeba9fb4243b305c9c1e",
  "args": [],
  "numDeployments": 2,
  "solcInputHash": "fcf5a696a5cca70077cc65fabddc26a9",
  "bytecode": "0x60a06040523073ffffffffffffffffffffffffffffffffffffffff1660809073ffffffffffffffffffffffffffffffffffffffff168152503480156200004457600080fd5b50620000556200005b60201b60201c565b62000205565b600060019054906101000a900460ff1615620000ae576040517f08c379a0000000000000000000000000000000000000000000000000000000008152600401620000a590620001a8565b60405180910390fd5b60ff801660008054906101000a900460ff1660ff16146200011f5760ff6000806101000a81548160ff021916908360ff1602179055507f7f26b83ff96e1f2b6a682f133852f6798a09c465da95921460cefb384740249860ff604051620001169190620001e8565b60405180910390a15b565b600082825260208201905092915050565b7f496e697469616c697a61626c653a20636f6e747261637420697320696e69746960008201527f616c697a696e6700000000000000000000000000000000000000000000000000602082015250565b60006200019060278362000121565b91506200019d8262000132565b604082019050919050565b60006020820190508181036000830152620001c38162000181565b9050919050565b600060ff82169050919050565b620001e281620001ca565b82525050565b6000602082019050620001ff6000830184620001d7565b92915050565b60805161360f6200023d6000396000818161070301528181610791015281816108a40152818161093201526109e2015261360f6000f3fe6080604052600436106101405760003560e01c806384c9fcad116100b6578063bc9502df1161006f578063bc9502df1461044b578063c0c53b8b14610474578063d1d55d141461049d578063d547741f146104c6578063f72c0d8b146104ef578063fbfa77cf1461051a57610140565b806384c9fcad1461033d57806385535cc51461036857806391d1485414610391578063a151b7c2146103ce578063a217fddf146103f7578063af6caba81461042257610140565b806336568abe1161010857806336568abe1461023c5780633659cfe61461026557806344813baf1461028e5780634f1ef286146102cb57806352d1902d146102e757806375b238fc1461031257610140565b806301ffc9a7146101455780631698755f14610182578063248a9ca3146101ab57806325a6fbed146101e85780632f2ff15d14610213575b600080fd5b34801561015157600080fd5b5061016c6004803603810190610167919061233d565b610545565b6040516101799190612385565b60405180910390f35b34801561018e57600080fd5b506101a960048036038101906101a49190612434565b610557565b005b3480156101b757600080fd5b506101d260048036038101906101cd91906124aa565b610616565b6040516101df91906124e6565b60405180910390f35b3480156101f457600080fd5b506101fd610636565b60405161020a9190612560565b60405180910390f35b34801561021f57600080fd5b5061023a6004803603810190610235919061257b565b61065d565b005b34801561024857600080fd5b50610263600480360381019061025e919061257b565b61067e565b005b34801561027157600080fd5b5061028c600480360381019061028791906125bb565b610701565b005b34801561029a57600080fd5b506102b560048036038101906102b091906125e8565b610889565b6040516102c29190612624565b60405180910390f35b6102e560048036038101906102e09190612785565b6108a2565b005b3480156102f357600080fd5b506102fc6109de565b60405161030991906124e6565b60405180910390f35b34801561031e57600080fd5b50610327610a97565b60405161033491906124e6565b60405180910390f35b34801561034957600080fd5b50610352610abb565b60405161035f9190612802565b60405180910390f35b34801561037457600080fd5b5061038f600480360381019061038a919061285b565b610ae2565b005b34801561039d57600080fd5b506103b860048036038101906103b3919061257b565b610bcf565b6040516103c59190612385565b60405180910390f35b3480156103da57600080fd5b506103f560048036038101906103f091906125e8565b610c3a565b005b34801561040357600080fd5b5061040c610cfd565b60405161041991906124e6565b60405180910390f35b34801561042e57600080fd5b5061044960048036038101906104449190612888565b610d04565b005b34801561045757600080fd5b50610472600480360381019061046d91906125e8565b610d7a565b005b34801561048057600080fd5b5061049b600480360381019061049691906128c8565b610f46565b005b3480156104a957600080fd5b506104c460048036038101906104bf91906125bb565b61126c565b005b3480156104d257600080fd5b506104ed60048036038101906104e8919061257b565b611359565b005b3480156104fb57600080fd5b5061050461137a565b60405161051191906124e6565b60405180910390f35b34801561052657600080fd5b5061052f61139e565b60405161053c919061292a565b60405180910390f35b6000610550826113c5565b9050919050565b7fa49807205ce4d355092ef5a8a18f56e8913cf4a201fbe287825b095693c217756105818161143f565b6105ac33838573ffffffffffffffffffffffffffffffffffffffff166114539092919063ffffffff16565b3373ffffffffffffffffffffffffffffffffffffffff168373ffffffffffffffffffffffffffffffffffffffff167f4831bdd9dcf3048a28319ce81d3cab7a15366bcf449bc7803a539107440809cc846040516106099190612624565b60405180910390a3505050565b600060656000838152602001908152602001600020600101549050919050565b61012e60009054906101000a900473ffffffffffffffffffffffffffffffffffffffff1681565b61066682610616565b61066f8161143f565b61067983836114d9565b505050565b6106866114e7565b73ffffffffffffffffffffffffffffffffffffffff168173ffffffffffffffffffffffffffffffffffffffff16146106f3576040517f08c379a00000000000000000000000000000000000000000000000000000000081526004016106ea906129c8565b60405180910390fd5b6106fd82826114ef565b5050565b7f000000000000000000000000000000000000000000000000000000000000000073ffffffffffffffffffffffffffffffffffffffff163073ffffffffffffffffffffffffffffffffffffffff160361078f576040517f08c379a000000000000000000000000000000000000000000000000000000000815260040161078690612a5a565b60405180910390fd5b7f000000000000000000000000000000000000000000000000000000000000000073ffffffffffffffffffffffffffffffffffffffff166107ce6114fd565b73ffffffffffffffffffffffffffffffffffffffff1614610824576040517f08c379a000000000000000000000000000000000000000000000000000000000815260040161081b90612aec565b60405180910390fd5b61082d81611554565b61088681600067ffffffffffffffff81111561084c5761084b61265a565b5b6040519080825280601f01601f19166020018201604052801561087e5781602001600182028036833780820191505090505b506000611582565b50565b6101306020528060005260406000206000915090505481565b7f000000000000000000000000000000000000000000000000000000000000000073ffffffffffffffffffffffffffffffffffffffff163073ffffffffffffffffffffffffffffffffffffffff1603610930576040517f08c379a000000000000000000000000000000000000000000000000000000000815260040161092790612a5a565b60405180910390fd5b7f000000000000000000000000000000000000000000000000000000000000000073ffffffffffffffffffffffffffffffffffffffff1661096f6114fd565b73ffffffffffffffffffffffffffffffffffffffff16146109c5576040517f08c379a00000000000000000000000000000000000000000000000000000000081526004016109bc90612aec565b60405180910390fd5b6109ce82611554565b6109da82826001611582565b5050565b60007f000000000000000000000000000000000000000000000000000000000000000073ffffffffffffffffffffffffffffffffffffffff163073ffffffffffffffffffffffffffffffffffffffff1614610a6e576040517f08c379a0000000000000000000000000000000000000000000000000000000008152600401610a6590612b7e565b60405180910390fd5b7f360894a13ba1a3210667c828492db98dca3e2076cc3735a920a3ca505d382bbc60001b905090565b7fa49807205ce4d355092ef5a8a18f56e8913cf4a201fbe287825b095693c2177581565b61012d60009054906101000a900473ffffffffffffffffffffffffffffffffffffffff1681565b7fa49807205ce4d355092ef5a8a18f56e8913cf4a201fbe287825b095693c21775610b0c8161143f565b8173ffffffffffffffffffffffffffffffffffffffff1661012f60009054906101000a900473ffffffffffffffffffffffffffffffffffffffff1673ffffffffffffffffffffffffffffffffffffffff167fa4f45a63389e7031375b7e4422cccea56ab403ecedbd3ce1f0587acaa1999ae360405160405180910390a38161012f60006101000a81548173ffffffffffffffffffffffffffffffffffffffff021916908373ffffffffffffffffffffffffffffffffffffffff1602179055505050565b60006065600084815260200190815260200160002060000160008373ffffffffffffffffffffffffffffffffffffffff1673ffffffffffffffffffffffffffffffffffffffff16815260200190815260200160002060009054906101000a900460ff16905092915050565b7fa49807205ce4d355092ef5a8a18f56e8913cf4a201fbe287825b095693c21775610c648161143f565b3373ffffffffffffffffffffffffffffffffffffffff166108fc839081150290604051600060405180830381858888f19350505050158015610caa573d6000803e3d6000fd5b503373ffffffffffffffffffffffffffffffffffffffff167f619a13697ca96b15bc278834a05830ee3ea6f70f102d2e2e1083d1ce168f06c883604051610cf19190612624565b60405180910390a25050565b6000801b81565b7fa49807205ce4d355092ef5a8a18f56e8913cf4a201fbe287825b095693c21775610d2e8161143f565b8161013060008581526020019081526020016000208190555081837f6e10705e8f713c8fba70c18d7fd53fe8fec14af5dc22fe8a745a57eae894b31b60405160405180910390a3505050565b610d826116f0565b600061013060008381526020019081526020016000205411610dd9576040517f08c379a0000000000000000000000000000000000000000000000000000000008152600401610dd090612bea565b60405180910390fd5b60006101306000838152602001908152602001600020549050610e653361012f60009054906101000a900473ffffffffffffffffffffffffffffffffffffffff168461012d60009054906101000a900473ffffffffffffffffffffffffffffffffffffffff1673ffffffffffffffffffffffffffffffffffffffff1661173f909392919063ffffffff16565b61012e60009054906101000a900473ffffffffffffffffffffffffffffffffffffffff1673ffffffffffffffffffffffffffffffffffffffff166340c10f1933836040518363ffffffff1660e01b8152600401610ec3929190612c19565b600060405180830381600087803b158015610edd57600080fd5b505af1158015610ef1573d6000803e3d6000fd5b5050505080823373ffffffffffffffffffffffffffffffffffffffff167f88021ce48cfd4c150aadf498f576400a04bd784e65cd5462b00d12fe5152437f60405160405180910390a450610f436117c8565b50565b60008060019054906101000a900460ff16159050808015610f775750600160008054906101000a900460ff1660ff16105b80610fa45750610f86306117d2565b158015610fa35750600160008054906101000a900460ff1660ff16145b5b610fe3576040517f08c379a0000000000000000000000000000000000000000000000000000000008152600401610fda90612cb4565b60405180910390fd5b60016000806101000a81548160ff021916908360ff1602179055508015611020576001600060016101000a81548160ff0219169083151502179055505b6110286117f5565b611030611846565b611038611897565b6110456000801b336114d9565b61106f7f189ab7a9244df0848122154315af71fe140f3db0fe014031783b0946b8c9d2e3336114d9565b6110997fa49807205ce4d355092ef5a8a18f56e8913cf4a201fbe287825b095693c21775336114d9565b8361012d60006101000a81548173ffffffffffffffffffffffffffffffffffffffff021916908373ffffffffffffffffffffffffffffffffffffffff1602179055508261012e60006101000a81548173ffffffffffffffffffffffffffffffffffffffff021916908373ffffffffffffffffffffffffffffffffffffffff1602179055508161012f60006101000a81548173ffffffffffffffffffffffffffffffffffffffff021916908373ffffffffffffffffffffffffffffffffffffffff160217905550674563918244f40000610130600069010f0cf064dd59200000815260200190815260200160002081905550678ac7230489e80000610130600069021e19e0c9bab24000008152602001908152602001600020819055506801158e460913d00000610130600069032d26d12e980b60000081526020019081526020016000208190555068022b1c8c1227a00000610130600069054b40b1f852bda0000081526020019081526020016000208190555080156112665760008060016101000a81548160ff0219169083151502179055507f7f26b83ff96e1f2b6a682f133852f6798a09c465da95921460cefb3847402498600160405161125d9190612d1c565b60405180910390a15b50505050565b7fa49807205ce4d355092ef5a8a18f56e8913cf4a201fbe287825b095693c217756112968161143f565b8173ffffffffffffffffffffffffffffffffffffffff1661012e60009054906101000a900473ffffffffffffffffffffffffffffffffffffffff1673ffffffffffffffffffffffffffffffffffffffff167fa4fc899ac68c404270ca30f9142e10f0d28b015f5b1bf3c3a934ef6fd9ca87a360405160405180910390a38161012e60006101000a81548173ffffffffffffffffffffffffffffffffffffffff021916908373ffffffffffffffffffffffffffffffffffffffff1602179055505050565b61136282610616565b61136b8161143f565b61137583836114ef565b505050565b7f189ab7a9244df0848122154315af71fe140f3db0fe014031783b0946b8c9d2e381565b61012f60009054906101000a900473ffffffffffffffffffffffffffffffffffffffff1681565b60007f7965db0b000000000000000000000000000000000000000000000000000000007bffffffffffffffffffffffffffffffffffffffffffffffffffffffff1916827bffffffffffffffffffffffffffffffffffffffffffffffffffffffff191614806114385750611437826118f0565b5b9050919050565b6114508161144b6114e7565b61195a565b50565b6114d48363a9059cbb60e01b8484604051602401611472929190612c19565b604051602081830303815290604052907bffffffffffffffffffffffffffffffffffffffffffffffffffffffff19166020820180517bffffffffffffffffffffffffffffffffffffffffffffffffffffffff83818316178352505050506119df565b505050565b6114e38282611aa7565b5050565b600033905090565b6114f98282611b88565b5050565b600061152b7f360894a13ba1a3210667c828492db98dca3e2076cc3735a920a3ca505d382bbc60001b611c6a565b60000160009054906101000a900473ffffffffffffffffffffffffffffffffffffffff16905090565b7f189ab7a9244df0848122154315af71fe140f3db0fe014031783b0946b8c9d2e361157e8161143f565b5050565b6115ae7f4910fdfa16fed3260ed0e7147f7cc6da11a60208b5b9406d12a635614ffd914360001b611c74565b60000160009054906101000a900460ff16156115d2576115cd83611c7e565b6116eb565b8273ffffffffffffffffffffffffffffffffffffffff166352d1902d6040518163ffffffff1660e01b8152600401602060405180830381865afa92505050801561163a57506040513d601f19601f820116820180604052508101906116379190612d4c565b60015b611679576040517f08c379a000000000000000000000000000000000000000000000000000000000815260040161167090612deb565b60405180910390fd5b7f360894a13ba1a3210667c828492db98dca3e2076cc3735a920a3ca505d382bbc60001b81146116de576040517f08c379a00000000000000000000000000000000000000000000000000000000081526004016116d590612e7d565b60405180910390fd5b506116ea838383611d37565b5b505050565b600260fb5403611735576040517f08c379a000000000000000000000000000000000000000000000000000000000815260040161172c90612ee9565b60405180910390fd5b600260fb81905550565b6117c2846323b872dd60e01b85858560405160240161176093929190612f09565b604051602081830303815290604052907bffffffffffffffffffffffffffffffffffffffffffffffffffffffff19166020820180517bffffffffffffffffffffffffffffffffffffffffffffffffffffffff83818316178352505050506119df565b50505050565b600160fb81905550565b6000808273ffffffffffffffffffffffffffffffffffffffff163b119050919050565b600060019054906101000a900460ff16611844576040517f08c379a000000000000000000000000000000000000000000000000000000000815260040161183b90612fb2565b60405180910390fd5b565b600060019054906101000a900460ff16611895576040517f08c379a000000000000000000000000000000000000000000000000000000000815260040161188c90612fb2565b60405180910390fd5b565b600060019054906101000a900460ff166118e6576040517f08c379a00000000000000000000000000000000000000000000000000000000081526004016118dd90612fb2565b60405180910390fd5b6118ee611d63565b565b60007f01ffc9a7000000000000000000000000000000000000000000000000000000007bffffffffffffffffffffffffffffffffffffffffffffffffffffffff1916827bffffffffffffffffffffffffffffffffffffffffffffffffffffffff1916149050919050565b6119648282610bcf565b6119db5761197181611dbc565b61197f8360001c6020611de9565b6040516020016119909291906130db565b6040516020818303038152906040526040517f08c379a00000000000000000000000000000000000000000000000000000000081526004016119d2919061314e565b60405180910390fd5b5050565b6000611a41826040518060400160405280602081526020017f5361666545524332303a206c6f772d6c6576656c2063616c6c206661696c65648152508573ffffffffffffffffffffffffffffffffffffffff166120259092919063ffffffff16565b9050600081511480611a63575080806020019051810190611a62919061319c565b5b611aa2576040517f08c379a0000000000000000000000000000000000000000000000000000000008152600401611a999061323b565b60405180910390fd5b505050565b611ab18282610bcf565b611b845760016065600084815260200190815260200160002060000160008373ffffffffffffffffffffffffffffffffffffffff1673ffffffffffffffffffffffffffffffffffffffff16815260200190815260200160002060006101000a81548160ff021916908315150217905550611b296114e7565b73ffffffffffffffffffffffffffffffffffffffff168173ffffffffffffffffffffffffffffffffffffffff16837f2f8788117e7eff1d82e926ec794901d17c78024a50270940304540a733656f0d60405160405180910390a45b5050565b611b928282610bcf565b15611c665760006065600084815260200190815260200160002060000160008373ffffffffffffffffffffffffffffffffffffffff1673ffffffffffffffffffffffffffffffffffffffff16815260200190815260200160002060006101000a81548160ff021916908315150217905550611c0b6114e7565b73ffffffffffffffffffffffffffffffffffffffff168173ffffffffffffffffffffffffffffffffffffffff16837ff6391f5c32d9c69d2a47ea670b442974b53935d1edc7fd64eb21e047a839171b60405160405180910390a45b5050565b6000819050919050565b6000819050919050565b611c87816117d2565b611cc6576040517f08c379a0000000000000000000000000000000000000000000000000000000008152600401611cbd906132cd565b60405180910390fd5b80611cf37f360894a13ba1a3210667c828492db98dca3e2076cc3735a920a3ca505d382bbc60001b611c6a565b60000160006101000a81548173ffffffffffffffffffffffffffffffffffffffff021916908373ffffffffffffffffffffffffffffffffffffffff16021790555050565b611d408361203d565b600082511180611d4d5750805b15611d5e57611d5c838361208c565b505b505050565b600060019054906101000a900460ff16611db2576040517f08c379a0000000000000000000000000000000000000000000000000000000008152600401611da990612fb2565b60405180910390fd5b600160fb81905550565b6060611de28273ffffffffffffffffffffffffffffffffffffffff16601460ff16611de9565b9050919050565b606060006002836002611dfc919061331c565b611e06919061335e565b67ffffffffffffffff811115611e1f57611e1e61265a565b5b6040519080825280601f01601f191660200182016040528015611e515781602001600182028036833780820191505090505b5090507f300000000000000000000000000000000000000000000000000000000000000081600081518110611e8957611e88613392565b5b60200101907effffffffffffffffffffffffffffffffffffffffffffffffffffffffffffff1916908160001a9053507f780000000000000000000000000000000000000000000000000000000000000081600181518110611eed57611eec613392565b5b60200101907effffffffffffffffffffffffffffffffffffffffffffffffffffffffffffff1916908160001a90535060006001846002611f2d919061331c565b611f37919061335e565b90505b6001811115611fd7577f3031323334353637383961626364656600000000000000000000000000000000600f861660108110611f7957611f78613392565b5b1a60f81b828281518110611f9057611f8f613392565b5b60200101907effffffffffffffffffffffffffffffffffffffffffffffffffffffffffffff1916908160001a905350600485901c945080611fd0906133c1565b9050611f3a565b506000841461201b576040517f08c379a000000000000000000000000000000000000000000000000000000000815260040161201290613436565b60405180910390fd5b8091505092915050565b606061203484846000856120b9565b90509392505050565b61204681611c7e565b8073ffffffffffffffffffffffffffffffffffffffff167fbc7cd75a20ee27fd9adebab32041f755214dbc6bffa90cc0225b39da2e5c2d3b60405160405180910390a250565b60606120b183836040518060600160405280602781526020016135b360279139612186565b905092915050565b6060824710156120fe576040517f08c379a00000000000000000000000000000000000000000000000000000000081526004016120f5906134c8565b60405180910390fd5b6000808673ffffffffffffffffffffffffffffffffffffffff168587604051612127919061352f565b60006040518083038185875af1925050503d8060008114612164576040519150601f19603f3d011682016040523d82523d6000602084013e612169565b606091505b509150915061217a8783838761220c565b92505050949350505050565b60606000808573ffffffffffffffffffffffffffffffffffffffff16856040516121b0919061352f565b600060405180830381855af49150503d80600081146121eb576040519150601f19603f3d011682016040523d82523d6000602084013e6121f0565b606091505b50915091506122018683838761220c565b925050509392505050565b6060831561226e57600083510361226657612226856117d2565b612265576040517f08c379a000000000000000000000000000000000000000000000000000000000815260040161225c90613592565b60405180910390fd5b5b829050612279565b6122788383612281565b5b949350505050565b6000825111156122945781518083602001fd5b806040517f08c379a00000000000000000000000000000000000000000000000000000000081526004016122c8919061314e565b60405180910390fd5b6000604051905090565b600080fd5b600080fd5b60007fffffffff0000000000000000000000000000000000000000000000000000000082169050919050565b61231a816122e5565b811461232557600080fd5b50565b60008135905061233781612311565b92915050565b600060208284031215612353576123526122db565b5b600061236184828501612328565b91505092915050565b60008115159050919050565b61237f8161236a565b82525050565b600060208201905061239a6000830184612376565b92915050565b600073ffffffffffffffffffffffffffffffffffffffff82169050919050565b60006123cb826123a0565b9050919050565b6123db816123c0565b81146123e657600080fd5b50565b6000813590506123f8816123d2565b92915050565b6000819050919050565b612411816123fe565b811461241c57600080fd5b50565b60008135905061242e81612408565b92915050565b6000806040838503121561244b5761244a6122db565b5b6000612459858286016123e9565b925050602061246a8582860161241f565b9150509250929050565b6000819050919050565b61248781612474565b811461249257600080fd5b50565b6000813590506124a48161247e565b92915050565b6000602082840312156124c0576124bf6122db565b5b60006124ce84828501612495565b91505092915050565b6124e081612474565b82525050565b60006020820190506124fb60008301846124d7565b92915050565b6000819050919050565b600061252661252161251c846123a0565b612501565b6123a0565b9050919050565b60006125388261250b565b9050919050565b600061254a8261252d565b9050919050565b61255a8161253f565b82525050565b60006020820190506125756000830184612551565b92915050565b60008060408385031215612592576125916122db565b5b60006125a085828601612495565b92505060206125b1858286016123e9565b9150509250929050565b6000602082840312156125d1576125d06122db565b5b60006125df848285016123e9565b91505092915050565b6000602082840312156125fe576125fd6122db565b5b600061260c8482850161241f565b91505092915050565b61261e816123fe565b82525050565b60006020820190506126396000830184612615565b92915050565b600080fd5b600080fd5b6000601f19601f8301169050919050565b7f4e487b7100000000000000000000000000000000000000000000000000000000600052604160045260246000fd5b61269282612649565b810181811067ffffffffffffffff821117156126b1576126b061265a565b5b80604052505050565b60006126c46122d1565b90506126d08282612689565b919050565b600067ffffffffffffffff8211156126f0576126ef61265a565b5b6126f982612649565b9050602081019050919050565b82818337600083830152505050565b6000612728612723846126d5565b6126ba565b90508281526020810184848401111561274457612743612644565b5b61274f848285612706565b509392505050565b600082601f83011261276c5761276b61263f565b5b813561277c848260208601612715565b91505092915050565b6000806040838503121561279c5761279b6122db565b5b60006127aa858286016123e9565b925050602083013567ffffffffffffffff8111156127cb576127ca6122e0565b5b6127d785828601612757565b9150509250929050565b60006127ec8261252d565b9050919050565b6127fc816127e1565b82525050565b600060208201905061281760008301846127f3565b92915050565b6000612828826123a0565b9050919050565b6128388161281d565b811461284357600080fd5b50565b6000813590506128558161282f565b92915050565b600060208284031215612871576128706122db565b5b600061287f84828501612846565b91505092915050565b6000806040838503121561289f5761289e6122db565b5b60006128ad8582860161241f565b92505060206128be8582860161241f565b9150509250929050565b6000806000606084860312156128e1576128e06122db565b5b60006128ef868287016123e9565b9350506020612900868287016123e9565b925050604061291186828701612846565b9150509250925092565b6129248161281d565b82525050565b600060208201905061293f600083018461291b565b92915050565b600082825260208201905092915050565b7f416363657373436f6e74726f6c3a2063616e206f6e6c792072656e6f756e636560008201527f20726f6c657320666f722073656c660000000000000000000000000000000000602082015250565b60006129b2602f83612945565b91506129bd82612956565b604082019050919050565b600060208201905081810360008301526129e1816129a5565b9050919050565b7f46756e6374696f6e206d7573742062652063616c6c6564207468726f7567682060008201527f64656c656761746563616c6c0000000000000000000000000000000000000000602082015250565b6000612a44602c83612945565b9150612a4f826129e8565b604082019050919050565b60006020820190508181036000830152612a7381612a37565b9050919050565b7f46756e6374696f6e206d7573742062652063616c6c6564207468726f7567682060008201527f6163746976652070726f78790000000000000000000000000000000000000000602082015250565b6000612ad6602c83612945565b9150612ae182612a7a565b604082019050919050565b60006020820190508181036000830152612b0581612ac9565b9050919050565b7f555550535570677261646561626c653a206d757374206e6f742062652063616c60008201527f6c6564207468726f7567682064656c656761746563616c6c0000000000000000602082015250565b6000612b68603883612945565b9150612b7382612b0c565b604082019050919050565b60006020820190508181036000830152612b9781612b5b565b9050919050565b7f537761702072617465206e6f7420646566696e65640000000000000000000000600082015250565b6000612bd4601583612945565b9150612bdf82612b9e565b602082019050919050565b60006020820190508181036000830152612c0381612bc7565b9050919050565b612c13816123c0565b82525050565b6000604082019050612c2e6000830185612c0a565b612c3b6020830184612615565b9392505050565b7f496e697469616c697a61626c653a20636f6e747261637420697320616c72656160008201527f647920696e697469616c697a6564000000000000000000000000000000000000602082015250565b6000612c9e602e83612945565b9150612ca982612c42565b604082019050919050565b60006020820190508181036000830152612ccd81612c91565b9050919050565b6000819050919050565b600060ff82169050919050565b6000612d06612d01612cfc84612cd4565b612501565b612cde565b9050919050565b612d1681612ceb565b82525050565b6000602082019050612d316000830184612d0d565b92915050565b600081519050612d468161247e565b92915050565b600060208284031215612d6257612d616122db565b5b6000612d7084828501612d37565b91505092915050565b7f45524331393637557067726164653a206e657720696d706c656d656e7461746960008201527f6f6e206973206e6f742055555053000000000000000000000000000000000000602082015250565b6000612dd5602e83612945565b9150612de082612d79565b604082019050919050565b60006020820190508181036000830152612e0481612dc8565b9050919050565b7f45524331393637557067726164653a20756e737570706f727465642070726f7860008201527f6961626c65555549440000000000000000000000000000000000000000000000602082015250565b6000612e67602983612945565b9150612e7282612e0b565b604082019050919050565b60006020820190508181036000830152612e9681612e5a565b9050919050565b7f5265656e7472616e637947756172643a207265656e7472616e742063616c6c00600082015250565b6000612ed3601f83612945565b9150612ede82612e9d565b602082019050919050565b60006020820190508181036000830152612f0281612ec6565b9050919050565b6000606082019050612f1e6000830186612c0a565b612f2b6020830185612c0a565b612f386040830184612615565b949350505050565b7f496e697469616c697a61626c653a20636f6e7472616374206973206e6f74206960008201527f6e697469616c697a696e67000000000000000000000000000000000000000000602082015250565b6000612f9c602b83612945565b9150612fa782612f40565b604082019050919050565b60006020820190508181036000830152612fcb81612f8f565b9050919050565b600081905092915050565b7f416363657373436f6e74726f6c3a206163636f756e7420000000000000000000600082015250565b6000613013601783612fd2565b915061301e82612fdd565b601782019050919050565b600081519050919050565b60005b83811015613052578082015181840152602081019050613037565b60008484015250505050565b600061306982613029565b6130738185612fd2565b9350613083818560208601613034565b80840191505092915050565b7f206973206d697373696e6720726f6c6520000000000000000000000000000000600082015250565b60006130c5601183612fd2565b91506130d08261308f565b601182019050919050565b60006130e682613006565b91506130f2828561305e565b91506130fd826130b8565b9150613109828461305e565b91508190509392505050565b600061312082613029565b61312a8185612945565b935061313a818560208601613034565b61314381612649565b840191505092915050565b600060208201905081810360008301526131688184613115565b905092915050565b6131798161236a565b811461318457600080fd5b50565b60008151905061319681613170565b92915050565b6000602082840312156131b2576131b16122db565b5b60006131c084828501613187565b91505092915050565b7f5361666545524332303a204552433230206f7065726174696f6e20646964206e60008201527f6f74207375636365656400000000000000000000000000000000000000000000602082015250565b6000613225602a83612945565b9150613230826131c9565b604082019050919050565b6000602082019050818103600083015261325481613218565b9050919050565b7f455243313936373a206e657720696d706c656d656e746174696f6e206973206e60008201527f6f74206120636f6e747261637400000000000000000000000000000000000000602082015250565b60006132b7602d83612945565b91506132c28261325b565b604082019050919050565b600060208201905081810360008301526132e6816132aa565b9050919050565b7f4e487b7100000000000000000000000000000000000000000000000000000000600052601160045260246000fd5b6000613327826123fe565b9150613332836123fe565b9250828202613340816123fe565b91508282048414831517613357576133566132ed565b5b5092915050565b6000613369826123fe565b9150613374836123fe565b925082820190508082111561338c5761338b6132ed565b5b92915050565b7f4e487b7100000000000000000000000000000000000000000000000000000000600052603260045260246000fd5b60006133cc826123fe565b9150600082036133df576133de6132ed565b5b600182039050919050565b7f537472696e67733a20686578206c656e67746820696e73756666696369656e74600082015250565b6000613420602083612945565b915061342b826133ea565b602082019050919050565b6000602082019050818103600083015261344f81613413565b9050919050565b7f416464726573733a20696e73756666696369656e742062616c616e636520666f60008201527f722063616c6c0000000000000000000000000000000000000000000000000000602082015250565b60006134b2602683612945565b91506134bd82613456565b604082019050919050565b600060208201905081810360008301526134e1816134a5565b9050919050565b600081519050919050565b600081905092915050565b6000613509826134e8565b61351381856134f3565b9350613523818560208601613034565b80840191505092915050565b600061353b82846134fe565b915081905092915050565b7f416464726573733a2063616c6c20746f206e6f6e2d636f6e7472616374000000600082015250565b600061357c601d83612945565b915061358782613546565b602082019050919050565b600060208201905081810360008301526135ab8161356f565b905091905056fe416464726573733a206c6f772d6c6576656c2064656c65676174652063616c6c206661696c6564a26469706673582212204afadf9e4e2932880e0d83cfcc6b01ed92c04f7e2bf230ba0267c2dc86d9558664736f6c63430008130033",
  "libraries": {},
  "devdoc": {
    "events": {
      "AdminChanged(address,address)": {
        "details": "Emitted when the admin account has changed."
      },
      "BeaconUpgraded(address)": {
        "details": "Emitted when the beacon is changed."
      },
      "Initialized(uint8)": {
        "details": "Triggered when the contract has been initialized or reinitialized."
      },
      "RoleAdminChanged(bytes32,bytes32,bytes32)": {
        "details": "Emitted when `newAdminRole` is set as ``role``'s admin role, replacing `previousAdminRole` `DEFAULT_ADMIN_ROLE` is the starting admin for all roles, despite {RoleAdminChanged} not being emitted signaling this. _Available since v3.1._"
      },
      "RoleGranted(bytes32,address,address)": {
        "details": "Emitted when `account` is granted `role`. `sender` is the account that originated the contract call, an admin role bearer except when using {AccessControl-_setupRole}."
      },
      "RoleRevoked(bytes32,address,address)": {
        "details": "Emitted when `account` is revoked `role`. `sender` is the account that originated the contract call:   - if using `revokeRole`, it is the admin role bearer   - if using `renounceRole`, it is the role bearer (i.e. `account`)"
      },
      "Upgraded(address)": {
        "details": "Emitted when the implementation is upgraded."
      }
    },
    "kind": "dev",
    "methods": {
      "constructor": {
        "custom:oz-upgrades-unsafe-allow": "constructor"
      },
      "getRoleAdmin(bytes32)": {
        "details": "Returns the admin role that controls `role`. See {grantRole} and {revokeRole}. To change a role's admin, use {_setRoleAdmin}."
      },
      "grantRole(bytes32,address)": {
        "details": "Grants `role` to `account`. If `account` had not been already granted `role`, emits a {RoleGranted} event. Requirements: - the caller must have ``role``'s admin role. May emit a {RoleGranted} event."
      },
      "hasRole(bytes32,address)": {
        "details": "Returns `true` if `account` has been granted `role`."
      },
      "proxiableUUID()": {
        "details": "Implementation of the ERC1822 {proxiableUUID} function. This returns the storage slot used by the implementation. It is used to validate the implementation's compatibility when performing an upgrade. IMPORTANT: A proxy pointing at a proxiable contract should not be considered proxiable itself, because this risks bricking a proxy that upgrades to it, by delegating to itself until out of gas. Thus it is critical that this function revert if invoked through a proxy. This is guaranteed by the `notDelegated` modifier."
      },
      "renounceRole(bytes32,address)": {
        "details": "Revokes `role` from the calling account. Roles are often managed via {grantRole} and {revokeRole}: this function's purpose is to provide a mechanism for accounts to lose their privileges if they are compromised (such as when a trusted device is misplaced). If the calling account had been revoked `role`, emits a {RoleRevoked} event. Requirements: - the caller must be `account`. May emit a {RoleRevoked} event."
      },
      "revokeRole(bytes32,address)": {
        "details": "Revokes `role` from `account`. If `account` had been granted `role`, emits a {RoleRevoked} event. Requirements: - the caller must have ``role``'s admin role. May emit a {RoleRevoked} event."
      },
      "supportsInterface(bytes4)": {
        "details": "See {IERC165-supportsInterface}."
      },
      "upgradeTo(address)": {
        "custom:oz-upgrades-unsafe-allow-reachable": "delegatecall",
        "details": "Upgrade the implementation of the proxy to `newImplementation`. Calls {_authorizeUpgrade}. Emits an {Upgraded} event."
      },
      "upgradeToAndCall(address,bytes)": {
        "custom:oz-upgrades-unsafe-allow-reachable": "delegatecall",
        "details": "Upgrade the implementation of the proxy to `newImplementation`, and subsequently execute the function call encoded in `data`. Calls {_authorizeUpgrade}. Emits an {Upgraded} event."
      }
    },
    "version": 1
  },
  "userdoc": {
    "kind": "user",
    "methods": {},
    "version": 1
  },
  "storageLayout": {
    "storage": [
      {
        "astId": 953,
        "contract": "contracts/SL4YMinter.sol:SL4YMinter",
        "label": "_initialized",
        "offset": 0,
        "slot": "0",
        "type": "t_uint8"
      },
      {
        "astId": 956,
        "contract": "contracts/SL4YMinter.sol:SL4YMinter",
        "label": "_initializing",
        "offset": 1,
        "slot": "0",
        "type": "t_bool"
      },
      {
        "astId": 3280,
        "contract": "contracts/SL4YMinter.sol:SL4YMinter",
        "label": "__gap",
        "offset": 0,
        "slot": "1",
        "type": "t_array(t_uint256)50_storage"
      },
      {
        "astId": 3664,
        "contract": "contracts/SL4YMinter.sol:SL4YMinter",
        "label": "__gap",
        "offset": 0,
        "slot": "51",
        "type": "t_array(t_uint256)50_storage"
      },
      {
        "astId": 174,
        "contract": "contracts/SL4YMinter.sol:SL4YMinter",
        "label": "_roles",
        "offset": 0,
        "slot": "101",
        "type": "t_mapping(t_bytes32,t_struct(RoleData)169_storage)"
      },
      {
        "astId": 481,
        "contract": "contracts/SL4YMinter.sol:SL4YMinter",
        "label": "__gap",
        "offset": 0,
        "slot": "102",
        "type": "t_array(t_uint256)49_storage"
      },
      {
        "astId": 935,
        "contract": "contracts/SL4YMinter.sol:SL4YMinter",
        "label": "__gap",
        "offset": 0,
        "slot": "151",
        "type": "t_array(t_uint256)50_storage"
      },
      {
        "astId": 1251,
        "contract": "contracts/SL4YMinter.sol:SL4YMinter",
        "label": "__gap",
        "offset": 0,
        "slot": "201",
        "type": "t_array(t_uint256)50_storage"
      },
      {
        "astId": 1395,
        "contract": "contracts/SL4YMinter.sol:SL4YMinter",
        "label": "_status",
        "offset": 0,
        "slot": "251",
        "type": "t_uint256"
      },
      {
        "astId": 1464,
        "contract": "contracts/SL4YMinter.sol:SL4YMinter",
        "label": "__gap",
        "offset": 0,
        "slot": "252",
        "type": "t_array(t_uint256)49_storage"
      },
      {
        "astId": 5295,
        "contract": "contracts/SL4YMinter.sol:SL4YMinter",
        "label": "VTHO",
        "offset": 0,
        "slot": "301",
        "type": "t_contract(IERC20Upgradeable)2156"
      },
      {
        "astId": 5298,
        "contract": "contracts/SL4YMinter.sol:SL4YMinter",
        "label": "SL4Y",
        "offset": 0,
        "slot": "302",
        "type": "t_contract(ERC20PresetMinterPauserUpgradeable)2524"
      },
      {
        "astId": 5300,
        "contract": "contracts/SL4YMinter.sol:SL4YMinter",
        "label": "vault",
        "offset": 0,
        "slot": "303",
        "type": "t_address_payable"
      },
      {
        "astId": 5304,
        "contract": "contracts/SL4YMinter.sol:SL4YMinter",
        "label": "swapRates",
        "offset": 0,
        "slot": "304",
        "type": "t_mapping(t_uint256,t_uint256)"
      }
    ],
    "types": {
      "t_address": {
        "encoding": "inplace",
        "label": "address",
        "numberOfBytes": "20"
      },
      "t_address_payable": {
        "encoding": "inplace",
        "label": "address payable",
        "numberOfBytes": "20"
      },
      "t_array(t_uint256)49_storage": {
        "base": "t_uint256",
        "encoding": "inplace",
        "label": "uint256[49]",
        "numberOfBytes": "1568"
      },
      "t_array(t_uint256)50_storage": {
        "base": "t_uint256",
        "encoding": "inplace",
        "label": "uint256[50]",
        "numberOfBytes": "1600"
      },
      "t_bool": {
        "encoding": "inplace",
        "label": "bool",
        "numberOfBytes": "1"
      },
      "t_bytes32": {
        "encoding": "inplace",
        "label": "bytes32",
        "numberOfBytes": "32"
      },
      "t_contract(ERC20PresetMinterPauserUpgradeable)2524": {
        "encoding": "inplace",
        "label": "contract ERC20PresetMinterPauserUpgradeable",
        "numberOfBytes": "20"
      },
      "t_contract(IERC20Upgradeable)2156": {
        "encoding": "inplace",
        "label": "contract IERC20Upgradeable",
        "numberOfBytes": "20"
      },
      "t_mapping(t_address,t_bool)": {
        "encoding": "mapping",
        "key": "t_address",
        "label": "mapping(address => bool)",
        "numberOfBytes": "32",
        "value": "t_bool"
      },
      "t_mapping(t_bytes32,t_struct(RoleData)169_storage)": {
        "encoding": "mapping",
        "key": "t_bytes32",
        "label": "mapping(bytes32 => struct AccessControlUpgradeable.RoleData)",
        "numberOfBytes": "32",
        "value": "t_struct(RoleData)169_storage"
      },
      "t_mapping(t_uint256,t_uint256)": {
        "encoding": "mapping",
        "key": "t_uint256",
        "label": "mapping(uint256 => uint256)",
        "numberOfBytes": "32",
        "value": "t_uint256"
      },
      "t_struct(RoleData)169_storage": {
        "encoding": "inplace",
        "label": "struct AccessControlUpgradeable.RoleData",
        "members": [
          {
            "astId": 166,
            "contract": "contracts/SL4YMinter.sol:SL4YMinter",
            "label": "members",
            "offset": 0,
            "slot": "0",
            "type": "t_mapping(t_address,t_bool)"
          },
          {
            "astId": 168,
            "contract": "contracts/SL4YMinter.sol:SL4YMinter",
            "label": "adminRole",
            "offset": 0,
            "slot": "1",
            "type": "t_bytes32"
          }
        ],
        "numberOfBytes": "64"
      },
      "t_uint256": {
        "encoding": "inplace",
        "label": "uint256",
        "numberOfBytes": "32"
      },
      "t_uint8": {
        "encoding": "inplace",
        "label": "uint8",
        "numberOfBytes": "1"
      }
    }
  }
}